:020000040800F2
:10000000002000205D2700082D0800082F080008A8
:1000100000000000000000000000000000000000E0
:10002000000000000000000000000000310800088F
:100030000000000000000000330800083508000838
:10004000AD270008AD27000841080008AD270008CB
:10005000AD270008AD270008AD270008AD27000830
:10006000AD270008AD270008AD270008AD27000820
:10007000AD270008AD27000800000000AD270008EC
:1000800000000000AD270008000000000000000094
:10009000AD27000800000000AD270008AD270008CC
:1000A000AD270008AD270008AD270008AD270008E0
:1000B000AD270008AD270008AD270008AD270008D0
:1000C00010B5064C2378002B07D1054B002B02D02E
:1000D000044800E000BF0123237010BD040000208D
:1000E00000000000F8270008044B10B5002B03D0D7
:1000F0000349044800E000BF10BDC04600000000F6
:1001000008000020F8270008002243088B4274D31F
:1001100003098B425FD3030A8B4244D3030B8B4208
:1001200028D3030C8B420DD3FF22090212BA030C11
:100130008B4202D31212090265D0030B8B4219D3F2
:1001400000E0090AC30B8B4201D3CB03C01A524112
:10015000830B8B4201D38B03C01A5241430B8B425A
:1001600001D34B03C01A5241030B8B4201D30B0343
:10017000C01A5241C30A8B4201D3CB02C01A52416A
:10018000830A8B4201D38B02C01A5241430A8B422D
:1001900001D34B02C01A5241030A8B4201D30B0216
:1001A000C01A5241CDD2C3098B4201D3CB01C01A30
:1001B000524183098B4201D38B01C01A524143093A
:1001C0008B4201D34B01C01A524103098B4201D328
:1001D0000B01C01A5241C3088B4201D3CB00C01A95
:1001E000524183088B4201D38B00C01A524143080D
:1001F0008B4201D34B00C01A5241411A00D2014632
:10020000524110467047FFE701B5002000F006F8A4
:1002100002BDC0460029F7D076E770477047C04658
:10022000002B11D1002A0FD1002900D1002802D0C3
:100230000021C943081C07B4024802A140180290DB
:1002400003BDC046D9FFFFFF03B4684601B502985D
:1002500000F006F8019B9E4602B00CBC7047C046F9
:10026000F0B54F464646D646C0B5040082B00D00F4
:10027000914698468B422FD82CD04146484600F0F4
:10028000B1F829000600200000F0ACF8331A9C46B3
:10029000203B9A4600D576E04B46524693401F00DD
:1002A0004B46624693401E00AF4228D825D05346A5
:1002B000A41BBD41002B00DA7BE00022002300924A
:1002C00001930123524693400193012362469340D8
:1002D000009318E08242D0D90022002300920193BB
:1002E0000A9B002B01D01C605D600098019902B050
:1002F0001CBC90469946A246F0BDA342D7D9002225
:100300000023009201936346002BE9D0FB07984637
:10031000414672080A437B0866460EE0AB4201D1B3
:10032000A2420CD8A41A9D41012024196D4100213C
:10033000013E24184D41002E06D0AB42EED9013EBD
:1003400024196D41002EF8D10098019953460019E7
:100350006941002B23DB2B005246D3402A00644620
:10036000E2401C0053461500002B2DDB26005746AB
:10037000BE40330026006746BE403200801A9941D5
:1003800000900191ACE7624620239B1A4A46DA406E
:100390006146130042468A4017001F4380E76246C9
:1003A00020239B1A2A0066469A402300F3401343F9
:1003B000D4E76246202300219B1A0022009101927B
:1003C0000122DA40019280E72023624626009B1A30
:1003D000DE402F00B0466646B74046463B003343FA
:1003E000C8E7C04610B5002903D100F007F8203057
:1003F00002E0081C00F002F810BDC0461C210123D9
:100400001B04984201D3000C10391B0A984201D3F7
:10041000000A08391B09984201D30009043902A2D5
:10042000105C40187047C04604030202010101013C
:100430000000000000000000F0B58BB0364BDA6A17
:1004400004273A43DA62DA6A3A400092009AD96A9B
:1004500080221143D962D96A0A400192019ADA6A6C
:1004600001263243DA62DA6A32400292029AD96A8B
:1004700002221143D962D96A0A400392039AD96AC7
:1004800008221143D962DB6A1A400492049B0022BD
:100490002021A020C00500F043FC80239B01059390
:1004A0001E4B06930024079405A91D4800F072FB1B
:1004B0001C4B059303250695079405A9184800F0E1
:1004C00069FB05950695079405A9174800F062FB9E
:1004D000164B05930695079405A9A020C00500F0CA
:1004E00059FB2023059306960794089405A9A0209C
:1004F000C00500F04FFB0E4B05930695079405A928
:100500000C4800F047FB05970695079405A90A4893
:1005100000F040FB0BB0F0BD0010024000001110D5
:1005200000080050CFDF0000001C0050139F0000A7
:10053000F7FF000000040050000C005010B50948FF
:10054000094B036006234360084BC360836000F0DF
:10055000EDFB002800D110BD3B21054800F00AF852
:10056000F9E7C0462000002000300040FF0F0000E7
:100570007C280008FEE7000000B59DB028490B6804
:10058000284A1A4080231B0113430B600A230E9351
:10059000093B1193102212921393002318930EA873
:1005A00000F034FC00282FD10F2309930E3B0A934F
:1005B00000230B930C930D93002109A800F03EFF3C
:1005C000002825D1262300930023049380231B01B8
:1005D000059380239B020193684601F025F80028CB
:1005E0001AD100F0FBFFFA218900FFF78DFD00F022
:1005F0009FFA042000F0B8FA0120002200214042B6
:1006000000F05CFA1DB000BD99210748FFF7B2FF6A
:10061000A7210548FFF7AEFFB1210348FFF7AAFF66
:1006200000700040FFE7FFFF9028000810B500F0C1
:1006300019FAFFF7A1FFFFF7FFFE00F037F9FFF708
:100640007DFF00F07BF900F011F800F097F900F061
:1006500079F80124013C6442A02022002021C00539
:1006600000F05EFB322000F01BFAF3E700B587B024
:100670002448254B0360002343607F228260803240
:10068000C260036143618361C36101F035FA0028F0
:1006900023D101A900230B704B708B70CB600B61D1
:1006A0000122184801F08AFA00281BD101236A466A
:1006B0001370537093700023D37001226946114860
:1006C00001F004FB002812D1002200210D4801F0A6
:1006D00073FB002810D107B000BD43210B48FFF782
:1006E00049FFD6E752210948FFF744FFDEE75F21C3
:1006F0000648FFF73FFFE7E769210448FFF73AFFA5
:10070000E9E7C0463000002000280040A428000887
:1007100010B50268094B9A4200D010BD084A116D0D
:100720008023DB020B43136500220021022000F02E
:10073000C5F9022000F0F2F9EFE7C04600280040BA
:100740000010024010B50F480F4B036082235B007E
:10075000436000238360C360036143618022920091
:100760008261C3610362436283620733C36201F043
:10077000CBFB002800D110BD45210448FFF7FAFE4D
:10078000F9E7C0465400002000300140B8280008B6
:1007900070B586B00268124B9A4201D006B070BDA7
:1007A000104A516B80235B010B435363C0230193B9
:1007B0000226029600240394032504950594A020A4
:1007C00001A9C00500F0E6F90823019302960394FD
:1007D0000495059401A9044800F0DCF9DEE7C04661
:1007E00000300140001002400004005010B50E4BD4
:1007F0005A6B01210A435A63996B802252050A43BE
:100800009A63052000220021404200F057F902209F
:1008100000220021404200F051F901200022002175
:10082000404200F04BF910BD001002407047FEE757
:100830007047704710B500F025F900F0A6F910BD1B
:1008400010B5024801F044FB10BDC0463000002046
:10085000104B1968802252000A431A60DA680E4968
:100860000A40DA601A680D490A401A609A68012144
:100870008A439A601A680A490A401A60DA68094984
:100880000A40DA6000221A61074B802212059A6042
:100890007047C046001002400C40FF88F6FFF6FE8D
:1008A000FFFFFBFFFFFF02FF00ED00E000B587B098
:1008B0001748184B0360002343608360C3600361E3
:1008C00001F0CCFB002813D180235B01029302A925
:1008D0000F4801F0DDFB00280FD1002300930193A6
:1008E00069460B4801F060FC00280BD107B000BD41
:1008F0003E210948FFF73EFEE6E744210648FFF7A0
:1009000039FEEAE74B210448FFF734FEEEE7C04624
:10091000AC00002000080140CC2800080268054B0C
:100920009A4200D07047044A536B04210B4353632F
:10093000F8E7C046000801400010024010B50C481E
:100940000C4B036096239B01436000238360C360CC
:1009500003610C22426183610362436201F0C6FEBF
:10096000002800D110BD44210348FFF703FEF9E73A
:10097000E400002000480040E028000810B50D48C1
:100980000D4B0360E1235B02436000238360C3607F
:1009900003610C2242618361C3610362436201F01F
:1009A000A5FE002800D110BD59210448FFF7E2FD43
:1009B000F9E7C0465401002000440040E028000848
:1009C00000B587B00368194A934204D0184A93428D
:1009D00015D007B000BD174A916B8023DB020B4393
:1009E0009363302301932E3B029300220392033240
:1009F0000492059301A9104800F0CCF8E9E70D4AEC
:100A0000916B80239B020B4393630C2301930A3B5E
:100A10000293002303930333049301330593A0202F
:100A200001A9C00500F0B6F8D3E7C0460048004071
:100A300000440040001002400008005010B50400BF
:100A4000074B1868FA218900FFF75EFB00F070F889
:100A5000012000222100404200F030F8002010BDAB
:100A60000000002010B5064A136840210B431360B4
:100A70000020FFF7E3FFFFF7B9FE002010BDC046DE
:100A800000200240024A1368013313607047C046D9
:100A9000C4010020014B18687047C046C401002003
:100AA00010B582B00190FFF7F5FF0400FFF7F2FFE9
:100AB000001B019B9842F9D302B010BD70B500280D
:100AC00011DB8408134DC034A4006259032318407D
:100AD000C000FC331E008640B24389010B408340B6
:100AE0001343635170BDC0B20F220240083A92080E
:100AF00006329200084BD3185D6803242040C000E2
:100B0000FF2214008440A54389010A4082402A4301
:100B10005A60E7E700E100E000ED00E01F23184025
:100B20001E3B8340014A13607047C04600E100E06D
:100B300001380A4B98420FD8094A50600948036AA5
:100B40001B021B0AC02109060B43036200239360AA
:100B500007331360002070470120FCE7FFFFFF0010
:100B600010E000E000ED00E0042805D0054A13681D
:100B700004218B4313607047024A136804210B431E
:100B80001360F8E710E000E0704710B5FFF7FCFFD6
:100B900010BD0000F0B5C64600B5002338E00526BC
:100BA00000E00026AE4035003D430234A400554E1F
:100BB000A551554C25684246D4432E0026404A682C
:100BC000D20302D5424615432E004F4D2E606D686C
:100BD0002E0026404A68920302D5424615432E0055
:100BE000494D6E60AD682E0026404A68D20202D59B
:100BF000424615432E00444DAE60ED682C404A68D5
:100C0000920202D542462A4314003F4AD46001337F
:100C10000A681400DC4072D001249C4022409046B7
:100C2000F5D04D68022D01D0122D0ED1DD0808350A
:100C3000AD002F5807261E40B6000F22B240974342
:100C40000A69B24016003E432E504D686E1E012EBA
:100C500003D9112D01D0122D12D185685F00032612
:100C6000BE40B5432E00CD68BD4035438560456824
:100C7000A5434A681609012434409C402C43446033
:100C800007685E0003242500B540ED432F404A6805
:100C90001440B4403C430460C46825408C68B440B0
:100CA0002C43C4604A68D200B1D5184D6C6B012644
:100CB00034436C639C08A51CAD00124EAF5903264B
:100CC0001E40B5000F26AE40B743A026F605B04241
:100CD00000D166E70E4EB0420BD00E4EB0420AD0A5
:100CE0000D4EB04209D00D4EB04200D157E7062656
:100CF00058E7012656E7022654E7032652E704BCCC
:100D00009046F0BD00000140000401400010024088
:100D10000004005000080050000C0050001C00505F
:100D2000002A01D1816270478161FCE770B5041E21
:100D300024D00368124A1A600368124A1A600368D2
:100D400042685A60036882689A60FFF7A3FE050054
:100D50002368DA68002A06D0FFF79CFE401B302883
:100D6000F6D903200BE01969E268914202D01A61BA
:100D7000002004E0044A1A60002000E0012070BD59
:100D8000CCCC000055550000AAAA000030B51B4B82
:100D9000DB68F022134022D1184A926BD2000ED5A4
:100DA000174A1268C02149010A40C02149018A42FC
:100DB00016D1C0221202904212D1012310E00F4935
:100DC0008C6B8022520522438A630D4A1268C0242C
:100DD000640122408C6B0B4D2C408C63E5E70023B3
:100DE0000948026801218A431A43026002681140DF
:100DF000994201D0012030BD0020FCE700100240E4
:100E000000700040FFFFFFEF0020024070B582B08D
:100E100004000368DB0740D5CC4BDA680C23134091
:100E2000082B32D0C94BDA680C2313400C2B28D086
:100E3000636880225202934257D0A022D20293428A
:100E40005AD0C24B1A68C2490A401A601A688021F7
:100E500049020A400192019A1A68BE490A401A6082
:100E60006368002B54D0FFF715FE0500B74B1B68D5
:100E70009B0312D4FFF70EFE401B6428F6D9032013
:100E80006BE2B24BDB68DB03D2D5B04B1B689B0334
:100E900003D56368002B00D158E223689B075AD51D
:100EA000AA4BDA680C231340042B43D0A74BDA6813
:100EB0000C2313400C2B39D0E368002B00D1ADE09C
:100EC000A2490A680920824313430B60FFF7E2FD41
:100ED00005009E4B1B685B0700D596E0FFF7DAFD27
:100EE000401B0228F5D9032037E2984A1168802375
:100EF0005B020B431360B3E7944B19688022D20264
:100F00000A431A601968802252020A431A60A7E74E
:100F1000FFF7C0FD05008D4B1B689B03BDD5FFF798
:100F2000B9FD401B6428F6D9032016E2874BDB6825
:100F3000DB03C1D4854B1B685B0704D5E368012B39
:100F400001D0012009E281494B68834A134022699C
:100F5000120213434B602368DB063BD57B4BDB68F7
:100F60000C221A4200D080E0784B1B689B0503D509
:100F7000E369002B00D1EBE1606A744B5B68E0220F
:100F80001202134098425CD9FFF700FF002800D0FE
:100F9000E0E16E4A536871490B40616A0B4353604C
:100FA00053681B021B0A216A09060B435360636ADC
:100FB0005A0B013280231B029340644AD16809090D
:100FC0000F220A4066498A5CD340664A13600020BB
:100FD000FFF734FD23681B0700D492E06369002B00
:100FE0007CD05A4A136D01210B431365FFF752FD64
:100FF0000500564B1B6D9B0700D582E0FFF74AFDAD
:10100000401B0228F5D90320A7E150494B68524AFA
:1010100013402269120213434B609CE74B4A13684A
:1010200001218B431360FFF735FD0500474B1B681B
:101030005B0790D5FFF72EFD401B0228F6D9032051
:101040008BE1424A536845490B401843506053684E
:101050001B021B0A216A09060B435360606AFFF7F3
:1010600095FE0028A3D0012077E1E369002B22D070
:10107000364A116880235B000B431360FFF70AFDBB
:101080000500324B1B689B0506D4FFF703FD401B90
:101090000228F6D9032060E12C4A53682F490B40FF
:1010A000616A0B43536053681B021B0A216A0906DD
:1010B0000B4353608EE7254A13682B490B4013609E
:1010C000FFF7E8FC0500214B1B689B0582D5FFF765
:1010D000E1FC401B0228F6D903203EE11B4A136DB8
:1010E00001218B431365FFF7D5FC0500174B1B6DE2
:1010F0009B0706D5FFF7CEFC401B0228F6D903203C
:101100002BE123685B0700D48DE0104B9B6BDB0069
:1011100030D40E4A916B80235B050B43936301250A
:10112000124B1B68DB0527D5A3688022520093422F
:1011300036D0002B4CD1054B1A6D0B490A401A656D
:101140001A6D0B490A401A6530E0C0460010024093
:10115000FFFFFEFFFFFFFBFFFFE0FFFFFF1FFFFFA3
:101160001C28000800000020FFFEFFFF0070004068
:10117000FFFBFFFF0025D3E77A4A116880235B005D
:101180000B431360FFF786FC0600764B1B68DB05FC
:10119000CAD4FFF77FFC801B6428F6D90320DCE06B
:1011A000714A116D80235B000B431365A368002B0C
:1011B00028D0FFF76FFC06006B4B1B6D9B0530D4EE
:1011C000FFF768FC801B694B9842F5D90320C4E007
:1011D000A022D200934209D0634B1A6D64490A40A1
:1011E0001A651A6D63490A401A65DFE75E4B196D8F
:1011F000013AFF3A0A431A65196D802252000A43E8
:101200001A65D3E7FFF746FC0600574B1B6D9B059D
:1012100007D5FFF73FFC801B544B9842F5D90320BC
:101220009BE0012D21D023689B063CD5A369002BB0
:1012300021D04D4B99680120014399605A6B0243BC
:101240005A634D4A116A80239B010B431362FFF7D7
:1012500021FC0500444B9B689B0724D4FFF71AFC34
:10126000401B0228F6D9032077E03F4A936B43499D
:101270000B409363D7E73C4A936801218B4393600B
:101280003D4A136A3E490B401362FFF703FC050019
:10129000354B9B689B0706D5FFF7FCFB401B0228DC
:1012A000F6D9032059E0A36A002B55D02E4AD16805
:1012B0000C220A400C2A52D0022B12D02A4A136860
:1012C00030490B401360FFF7E5FB0400264B1B6819
:1012D0009B0139D5FFF7DEFB001B0228F6D903205E
:1012E0003BE0214A136827490B401360FFF7D2FB0C
:1012F00005001D4B1B689B0106D5FFF7CBFB401B70
:101300000228F6D9032028E01749CB681E4A13406B
:10131000E26A206B0243606B02431343CB600A68AE
:1013200080235B0413430B60FFF7B4FB04000E4BF8
:101330001B689B0106D4FFF7ADFB001B0228F6D902
:1013400003200AE0002008E0002006E0012004E07D
:10135000012002E0012000E0002002B070BD012069
:10136000FBE7C046007000400010024088130000F8
:10137000FFFEFFFFFFFBFFFF00000140FFFFFFEF4D
:10138000FFDFFFFFFFFFFFFEFFFF02FF10B5264B51
:10139000D9680C230B40082B42D00C2B11D0042B06
:1013A00009D0214B5A68520B072313400133802088
:1013B0000002984010BD1C4B1B68DB0632D51B4851
:1013C000F8E78A0C0F231340194AD05C890D0322D9
:1013D00011400131144BDB68DB030DD4124B1B6849
:1013E000DB0613D54201121A93019B1ADB001B186E
:1013F0001802FEF789FEDDE74201121A93019B1ADB
:10140000DB001B185802FEF77FFED3E74201121AD9
:1014100093019B1ADB001B189802FEF775FEC9E7C3
:101420000448C7E70448C5E70010024000093D0032
:101430001028000800127A000024F40070B504009F
:101440000D005F4B1A68012313408B420BD25C499D
:101450000B68012293432B430B600B681A40AA428E
:1014600001D0012070BD23689B0706D5554AD3687B
:10147000F0218B43A1680B43D3602368DB0764D55D
:101480006368022B09D0032B29D0012B2DD04D4AA4
:101490001268920506D40120E4E74A4A12689203D2
:1014A00000D48AE04749CA68032082431343CB60D3
:1014B000FFF7F0FA06006368022B1CD0032B28D03C
:1014C000012B34D03F4BDB680C221A423DD0FFF792
:1014D000E1FA801B3C4B9842F4D90320C2E7394A19
:1014E00012689201DED40120BCE7364A1268520726
:1014F000D8D40120B6E7334BDA680C231340082B0D
:1015000023D0FFF7C7FA801B2F4B9842F3D9032053
:10151000A8E72C4BDA680C2313400C2B15D0FFF7EF
:10152000B9FA801B284B9842F3D903209AE7254B40
:10153000DA680C231340042B07D0FFF7ABFA801BAB
:10154000214B9842F3D903208CE71D4B1A680123E5
:101550001340AB420BD91A490B68012293432B432A
:101560000B600B681A40AA4201D001207AE7236879
:101570005B0706D5134AD36814490B40E1680B4357
:10158000D36023681B0707D50E49CB68104A134068
:101590002269D2001343CB60FFF7F8FE094BDA68EB
:1015A00012090F2313400B4AD35CD8400A4B186032
:1015B0000020FFF743FA002054E7012052E7C0461D
:1015C000002002400010024088130000FFF8FFFFD7
:1015D000FFC7FFFF1C28000800000020014B18680F
:1015E0007047C0460000002010B5FFF7F7FF044B1E
:1015F000DA68120A07231340024AD35CD84010BDB0
:10160000001002402C28000810B5FFF7E7FF044B3C
:10161000DA68D20A07231340024AD35CD84010BDCF
:10162000001002402C28000870B5040082231B0122
:1016300002681A425AD0704B9B6BDB0000D593E0D6
:101640006D4A916B80235B050B43936301256B4BC4
:101650001B68DB0500D489E0674B1A68C0239B0335
:101660001A4061680B40934200D194E0C0239B0272
:101670000A001A409A4200D195E05F4B1B6DC022D0
:10168000920213401FD01140994202D02268920664
:1016900008D4C0229202A1680A409A4213D023685B
:1016A0001B0510D5544B186D554A02401E6D802104
:1016B000090331431965196D524E314019651A6598
:1016C000C30500D576E06368C0229202190011407C
:1016D000914200D17EE048490B6DC02292026068C1
:1016E000024013430B65012D00D17DE02368DB0729
:1016F00006D5414AD36C03218B43E1680B43D36485
:1017000023689B0706D53C4AD36C0C218B43216987
:101710000B43D36423685B0706D5374AD36C3A4939
:101720000B4061690B43D36423681B0706D5324A1B
:10173000D36C36490B40A1690B43D36423685B0625
:1017400006D52D4AD36C32490B40216A0B43D36432
:1017500023681B064ED5284AD36C2E490B40E169FD
:101760000B43D364002070BD002570E7234A116845
:1017700080235B000B431360FFF78CF906001F4BBF
:101780001B68DB0500D567E7FFF784F9801B642839
:10179000F5D90320E7E7C0239B03A06803409342E9
:1017A00000D063E769E7144B1B689B0300D464E730
:1017B0000120D8E7FFF76EF906000F4B1B6D9B0564
:1017C00000D580E7FFF766F9801B134B9842F4D9E8
:1017D0000320C8E708490A6810480240C020800377
:1017E000034013430B6076E70A008B6B0C490B40F8
:1017F00093637BE70020B6E70010024000700040D2
:10180000FFFFFCFFFFFFF7FFFFF3FFFFFFCFFFFF2F
:10181000FFFFFFFBFFFFF3FF88130000FFFFCFFF79
:10182000FFFFFFEF10B5082800D1EBE00AD802282F
:1018300000D1A2E0042800D1BEE0012800D17DE063
:10184000002010BD20282ED020D9402827D1854B3C
:10185000DB6C8022D204134066D1824A1268920166
:1018600062D5804BD868D968800C0F2202407E4830
:10187000805C8A0D032111400131DB68DB034ED40B
:10188000784B1B68DB0648D4784B49E01028D7D149
:10189000744B9B6B5B0200D5D0E00020D1E7802326
:1018A0001B019842CCD16F4B196D1B6DC022920267
:1018B000134080225202934209D080229202934226
:1018C0000AD0C022920293420AD00020B9E78A05CA
:1018D000F3D580200002B4E78A07F2D56448B0E768
:1018E000604B1B689B0300D4ABE05E4B1B68C022BF
:1018F0009203134080229203934200D1A3E0C022BE
:101900009203934205D080225203934203D0594858
:1019100097E7594895E7594893E7564B00E0584BED
:101920005843FEF7F1FB8CE7002B00D18DE04D4BC7
:101930009B689B0700D58AE0002082E7494BDA6C60
:101940000323134007D0022B08D0012B0CD0032B0C
:101950000DD0002075E7FFF757FE72E7414A126885
:101960005207F2D541486CE7FFF710FD69E73D4BA0
:101970001B6D9B056DD4002063E73A4BDA6C0C239A
:10198000134007D0082B08D0042B0CD00C2B0DD003
:10199000002056E7FFF728FE53E7324A1268520745
:1019A000F2D532484DE7FFF7F1FC4AE72D4B1B6DAE
:1019B0009B0551D4002044E72A4BDB6CC022120166
:1019C00013400DD08022120193420CD08022D2000D
:1019D00093420ED0C022120193420DD0002030E776
:1019E000FFF702FE2DE71F4A12685207EED51F4887
:1019F00027E7FFF7CBFC24E71A4B1B6D9B052ED482
:101A000000201EE7174BDB6CC0229201134009D067
:101A100080229201934208D08022520193420AD040
:101A200000200EE7FFF7E0FD0BE70E4A12685207B1
:101A3000F2D50E4805E7FFF7A9FC02E7FFF7D4FD52
:101A4000FFE60020FDE60F48FBE60020F9E60E4821
:101A5000F7E680200002F4E680200002F1E6802014
:101A60000002EEE600100240102800080024F400F6
:101A70008890000000093D0020A1070080841E001E
:101A800000127A0040420F00006CDC0270B50400C6
:101A90000268D368A0218B43D360FEF7FBFF0500EB
:101AA0002368DB689B0608D4FEF7F4FF401BFA238B
:101AB0009B009842F4D9032000E0002070BD70B56F
:101AC00004000368DA68520601D5002070BD0122C7
:101AD0005242DA60FEF7DEFF05002368DB685B0632
:101AE00008D4FEF7D7FF401BFA239B009842F4D995
:101AF0000320EBE70020E9E770B5041E4ED0212358
:101B0000C35C002B3CD021230222E2542368C8325C
:101B10005A622368773A5A622000FFF7D0FF002804
:101B200034D1226893681E490B40936021688A680B
:101B3000636825692B43A5692B4313438B60236896
:101B4000E2681A6121680B69A268120413430B61F1
:101B50002268D36880218B43D3602268D36C7D399F
:101B60008B43D3642168CB6CE26965692A431343D4
:101B7000CB642368FF225A622123FE3AE25470BDEF
:101B800020330022C254FEF7C3FDBCE72368FF22C6
:101B90005A622123FB3AE2540120F0E70120EEE7EC
:101BA000BFFF8FFF002302E001330A38C0B20928CB
:101BB000FAD81B01DBB2184370470000F8B50400E7
:101BC0000E002023C35C012B00D178E020230121EB
:101BD000C15401330131C154002A43D103689B68C9
:101BE0005B0601D40023F3703078FFF7DBFF0504B8
:101BF0007078FFF7D7FF00020543B078FFF7D2FFF8
:101C00000543F078000405432368CA225A6223681A
:101C1000773A5A622000FFF752FF071E33D123683C
:101C2000284805401D602268936827490B4093604F
:101C300021688B68F2683069024313438B60226825
:101C4000D36880218B43D36023689B689B0626D58D
:101C50002368FF225A622123FE3AE254013B00220C
:101C6000E2541AE003689B685B0601D40023F3701A
:101C700035782D04707800020543B0780543F0787C
:101C800000040543C0E72368FF225A622123FB3A80
:101C9000E254013B0022E25401273800F8BD200045
:101CA000FFF7F4FE0028D3D02368FF225A622123D5
:101CB000FB3AE254013B0022E2540127EDE7022700
:101CC000EBE7C0467F7F7F00FFFFFBFF70B504009E
:101CD0000E002023C35C012B69D020230121C154B5
:101CE00001330131C154002A06D17378D90603D5D6
:101CF00010218B430A337370002A31D1F078FFF73B
:101D000051FF05047078FFF74DFF00020543B078DE
:101D1000FFF748FF05433078400305432368CA2294
:101D20005A622368773A5A622000FFF7C8FE061EFF
:101D300021D123681F4805405D602268D368802157
:101D40008B43D36023689B689B0620D52368FF22C2
:101D50005A622123FE3AE254013B0022E25414E08D
:101D60007378B078F5782D041B021D430543307855
:101D700040030543D2E72368FF225A622123FB3A3E
:101D8000E254013B0022E2540126300070BD2000E5
:101D9000FFF77CFE0028D9D02368FF225A62212356
:101DA000FB3AE254013B0022E2540126EDE7022611
:101DB000EBE7C0463FFFFF00F8B504000E0015003A
:101DC0002023C35C012B00D177E020230122C254E1
:101DD00001330132C2540368C8325A620368773A49
:101DE0005A6203689B685B0518D5FEF753FE07002F
:101DF0002368DB685B0711D5FEF74CFEC01BFA2396
:101E00009B009842F4D92368FF225A622123FC3AAE
:101E1000E254013B0022E25403204DE02268936823
:101E200027490B4093602168CA68FF231A40254B5D
:101E30001343CB60FEF72EFE07002368DA685207D3
:101E400011D4FEF727FEC01BFA239B009842F4D959
:101E50002368FF225A622123FC3AE254013B00220C
:101E6000E254032028E05E612268936807218B43D7
:101E70009360226893681D439560134B1968802214
:101E800052031143196099680A439A602268916865
:101E90008023DB010B439360226891688023DB0081
:101EA0000B4393602368FF225A622123FE3AE254D7
:101EB000013B0022E2540020F8BD0220FCE7C046AE
:101EC000FFFBFFFF7FFBFFFF0004014070470000A6
:101ED00010B504000368DB685B0507D4084B80225B
:101EE00052035A6121230122E25410BDFFF7EEFF95
:101EF0002168CA68FF231A40024B1343CB60EDE709
:101F0000000401407FFBFFFF10B5041E3CD05123AD
:101F1000C35C002B32D051220223A35421680B68EA
:101F2000402083430B606368A1680B43E1680B4367
:101F300021690B4361690B4380218900A06901403D
:101F40000B43E1690B43216A0B432168A06A0343F9
:101F50000B60618B04230B402168606A03434B6074
:101F60002368E16A19612168CB6908480340CB61A5
:101F7000002363650133A354002010BD50330022B9
:101F8000C254FEF705FCC6E70120F6E7FFF7FFFFA6
:101F900003688022D205904205D0104A904202D0B8
:101FA0000F4A904203D1702293434A681343802220
:101FB000D205904205D0094A904202D0084A904288
:101FC00003D1084A1340CA68134303608B68C36295
:101FD0000B688362012343617047C04600080140DB
:101FE00000140140FFFCFFFF30B5036A046A0125BD
:101FF000AC4304628469EF35AC43120122430A24E6
:10200000A34319438261016230BD000030B5036A09
:102010001024A34303628469036A054D2C40120314
:102020002243A024A343090119438261016230BD08
:10203000FF0FFFFF83687022934307221143194368
:102040008160704730B58468034D2C401B021A43F1
:1020500011432143816030BDFF00FFFF70B5041EB6
:1020600014D03523C35C002B0AD0352502236355D9
:10207000211D2068FFF78CFF01236355002070BDF0
:1020800034330022C254FEF749FCEEE70120F6E7A4
:1020900010B504003423C35C012B00D17FE034234E
:1020A0000122C25401330132C254026893683D4890
:1020B000034093600B68402B5DD010D9702B43D048
:1020C00020D8502B4DD0602B36D1CA684968206883
:1020D000FFF79CFF60212068FFF7ACFF2CE0102B7E
:1020E00053D008D9202B55D0302B25D13021206852
:1020F000FFF7A0FF20E0002B1ED100212068FFF792
:1021000099FF19E080225201934210D0802292015F
:10211000934211D1CB684A6889682068FFF792FF23
:10212000226891688023DB010B43936004E02268FE
:10213000936807218B43936035230122E254013BCE
:102140000022E254002010BDCB684A6889682068EC
:10215000FFF778FF2268936877218B430B439360E6
:10216000EAE7CA6849682068FFF73EFF5021206807
:10217000FFF760FFE0E7CA6849682068FFF734FFAF
:1021800040212068FFF756FFD6E710212068FFF7AF
:1021900051FFD1E720212068FFF74CFFCCE7022058
:1021A000D1E7C0468800FFFFF0B53423C35C012BA4
:1021B0001ED0342201258554352402230355066898
:1021C00073687027BB437360066873680F683B438E
:1021D00073600668B3688027BB43B3600668B36862
:1021E00049680B43B3600555002383540020F0BDBC
:1021F0000220FCE7F8B50400016883680269134314
:1022000042691343C26913430A68BA480240134340
:102210000B6022685368B8490B40E1680B43536078
:10222000A1692268B54B9A4201D0236A1943936889
:10223000B34803400B4393602368B24A93421AD0D9
:10224000B14A93422BD0AD4A93423DD01025022093
:10225000FFF7E8FA2668A94B9E4257D080231B025D
:10226000E2699A4200D18CE0082D00D940E1AD002E
:10227000A64B5B599F46A64BDA6C03231340012BF8
:1022800009D0002B05D0022B3AD0032B05D0102506
:10229000DDE70125DBE70425D9E70825D7E79C4BD7
:1022A000DA6C0C231340042B0AD005D9082B29D053
:1022B0000C2B07D10825CAE7002B03D10025C6E760
:1022C0000425C4E71025C2E7914BDB6CC022120144
:1022D00013408022D20093420ED009D980221201ED
:1022E000934211D0C0221201934207D10825AEE7D4
:1022F000002B03D10025AAE70425A8E71025A6E7AF
:102300000225A4E70225A2E70225A0E7022D2DD091
:1023100007D9042D30D0082D00D0DFE08020000246
:1023200007E0002D00D0D9E0FFF75EF9002800D1CA
:10233000D6E0626853009B18834200D9D2E01303B1
:10234000834200D2D0E0070E060250080021801917
:1023500079410023FDF764FF6E4BC2186E4B9A4221
:1023600000D9C3E02368D860002022E0684B1B68D6
:10237000DB0604D46948DCE7FFF708F8D6E76848CD
:10238000D7E7082D54D8AD00664B5B599F464000F7
:1023900063685B08C0186168FDF7B6FE83B2002071
:1023A0000F22190091435B10083A13400B43226837
:1023B000D360F8BDFFF728F9400063685B08C018D8
:1023C0006168FDF7A1FE83B20020E9E7504B1B686E
:1023D000DB060AD563685808534B9C466044616825
:1023E000FDF792FE83B20020DAE7636858084F4B8E
:1023F0009C4660446168FDF787FE83B20020CFE70A
:10240000FEF7C4FF400063685B08C0186168FDF711
:102410007BFE83B20020C3E76368580880235B0219
:102420009C4660446168FDF76FFE83B20020B7E709
:1024300001200023B4E7FFF7D7F863685B08C018F2
:102440006168FDF761FE23680004000CD86000207D
:10245000AFE7FFF7D9F863685B08C0186168FDF75C
:1024600053FE23680004000CD8600020A1E7284B2D
:102470001B68DB060BD561684808294B9C46604405
:10248000FDF742FE0004000CF060002091E7616857
:102490004808224B9C466044FDF736FE0004000CC1
:1024A000F060002085E7FEF771FF63685B08C018E5
:1024B0006168FDF729FE23680004000CD860002045
:1024C00077E76168480880231B029C466044FDF75B
:1024D0001BFE0004000CF06000206AE7012068E7A2
:1024E000002066E7012064E7012062E7012060E741
:1024F00001205EE7F369FFEFFFCFFFFF00480040D8
:10250000FFF4FFFF00380140004400403428000879
:102510000010024000FDFFFFFFFC0F000024F4004C
:1025200000093D005828000800127A000048E80120
:10253000436ADB0706D5026853682C490B40816A61
:102540000B435360436A9B0706D5026853682849CA
:102550000B40C16A0B435360436A5B0706D50268B0
:10256000536824490B40016B0B435360436A1B07BC
:1025700006D50268536820490B40416B0B435360FA
:10258000436ADB0606D5026893681C490B40816BE1
:102590000B439360436A9B0606D50268936818490B
:1025A0000B40C16B0B439360436A5B060BD502681B
:1025B000536814490B40016C0B43536080235B0349
:1025C000026C9A420AD0436A1B0606D50268536819
:1025D0000D490B40816C0B43536070470268536890
:1025E0000A490B40416C0B435360ECE7FFFFFDFFD2
:1025F000FFFFFEFFFFFFFBFFFF7FFFFFFFEFFFFF80
:10260000FFDFFFFFFFFFEFFFFFFFF7FFFFFF9FFF72
:10261000F0B5C64600B506000C0017009846069DAA
:102620003368DB6923401B1B5A425341BB421ED116
:102630006B1CF5D0002D05D0FEF72CFA4346C01ACE
:10264000A842EDD9326813680B490B401360326819
:102650009368A331FF318B43936020236922B354E5
:102660000132B35448330022F254032000E000202A
:1026700004BC9046F0BDC0465FFEFFFF30B583B09E
:1026800004000023C366FEF705FA050023681B68F3
:102690001B070ED423681B685B0717D4202369220D
:1026A000A3540132A35448330022E254002003B063
:1026B00030BD80210C4B00930300002289032000D1
:1026C000FFF7A6FF0028E5D00320F0E78021064BA6
:1026D00000932B000022C9032000FFF799FF002878
:1026E000DCD00320E3E7C046FFFFFF0110B5041E66
:1026F00030D06923C35C002B22D069232422E2540A
:102700002268136801218B431360636A002B1DD17B
:102710002000FFF76FFD012811D0226853680E4991
:102720000B405360226893682A218B439360226890
:10273000136829390B4313602000FFF79FFF10BD7A
:1027400068330022C254FEF73BF9D6E72000FFF7BA
:10275000EFFEDDE70120F2E7FFB7FFFF0D488546FA
:10276000002103E00C4B5B58435004310B480C4BE9
:1027700042189A42F6D30B4A02E000231360043257
:10278000094B9A42F9D3FEF763F800F011F8FDF710
:102790004DFFFEE700200020042900080000002073
:1027A0000400002004000020C8010020FEE7000013
:1027B00070B500260C4D0D4C641BA410A64209D127
:1027C000002600F019F80A4D0A4C641BA410A6421A
:1027D00005D170BDB300EB5898470136EEE7B30062
:1027E000EB5898470136F2E7FC280008FC2800085F
:1027F000FC28000800290008F8B5C046F8BC08BC51
:102800009E467047F8B5C046F8BC08BC9E46704767
:10281000030406080C10182030000000000000001F
:102820000000000001020304060708090000000080
:102830000102030436240008522400086E24000814
:10284000F0240008A6240008F0240008F024000862
:10285000F0240008C22400088E230008B4230008D6
:10286000CC2300083024000800240008302400088D
:102870003024000830240008182400082E2E2F438E
:102880006F72652F5372632F697764672E63000040
:102890002E2E2F436F72652F5372632F6D61696EF9
:1028A0002E6300002E2E2F436F72652F5372632FFD
:1028B0007274632E630000002E2E2F436F72652FFB
:1028C0005372632F7370692E630000002E2E2F4306
:1028D0006F72652F5372632F74696D2E6300000051
:1028E0002E2E2F436F72652F5372632F7573617293
:0428F000742E6300DF
:0828F4006CD9FF7F0100000018
:0428FC00E9000008E7
:04290000C10000080A
:0429040080841E00AD
:040000050800275D6B
:00000001FF
