:020000040800F2
:10000000002000204D3F0008090C00080B0C0008E0
:1000100000000000000000000000000000000000E0
:100020000000000000000000000000000D0C0008AF
:1000300000000000000000000F0C0008110C000878
:100040009D3F00089D3F00081D0C00089D3F0008D3
:100050009D3F00089D3F00089D3F00089D3F000810
:100060009D3F00089D3F00089D3F00089D3F000800
:100070009D3F00089D3F0008000000009D3F0008D4
:10008000000000009D3F000800000000000000008C
:100090009D3F0008000000009D3F00089D3F0008B4
:1000A0009D3F00089D3F00089D3F00089D3F0008C0
:1000B0009D3F00089D3F00089D3F00089D3F0008B0
:1000C00010B5064C2378002B07D1054B002B02D02E
:1000D000044800E000BF0123237010BD7000002021
:1000E0000000000054480008044B10B5002B03D05A
:1000F0000349044800E000BF10BDC04600000000F6
:100100007400002054480008002243088B4274D336
:1001100003098B425FD3030A8B4244D3030B8B4208
:1001200028D3030C8B420DD3FF22090212BA030C11
:100130008B4202D31212090265D0030B8B4219D3F2
:1001400000E0090AC30B8B4201D3CB03C01A524112
:10015000830B8B4201D38B03C01A5241430B8B425A
:1001600001D34B03C01A5241030B8B4201D30B0343
:10017000C01A5241C30A8B4201D3CB02C01A52416A
:10018000830A8B4201D38B02C01A5241430A8B422D
:1001900001D34B02C01A5241030A8B4201D30B0216
:1001A000C01A5241CDD2C3098B4201D3CB01C01A30
:1001B000524183098B4201D38B01C01A524143093A
:1001C0008B4201D34B01C01A524103098B4201D328
:1001D0000B01C01A5241C3088B4201D3CB00C01A95
:1001E000524183088B4201D38B00C01A524143080D
:1001F0008B4201D34B00C01A5241411A00D2014632
:10020000524110467047FFE701B5002000F006F8A4
:1002100002BDC0460029F7D076E770477047C04658
:10022000002B15D1002A13D1002906DB01DC0028A0
:1002300006D00020C043410802E0802109060020CA
:1002400007B4024801A14018029003BDD1FFFFFF8F
:1002500003B4684601B5029800F012F9019B9E466E
:1002600002B00CBC7047C046002B11D1002A0FD140
:10027000002900D1002802D00021C943081C07B47E
:10028000024802A14018029003BDC04691FFFFFF43
:1002900003B4684601B5029800F030F8019B9E4611
:1002A00002B00CBC7047C046F0B5CE4647461504B8
:1002B0002D0C2E0080B50704140C3F0C9946030C3E
:1002C0007E435D43674363437F19340CE4199C46C6
:1002D000A54203D980235B029846C4444B4643435E
:1002E0005143250C36046544360C2404A4195B19CB
:1002F000591820000CBC90469946F0BDF0B54F4609
:100300004646D646C0B5040082B00D0091469846D8
:100310008B422FD82CD04146484600F0CDF829001A
:100320000600200000F0C8F8331A9C46203B9A468D
:1003300000D576E04B46524693401F004B4662463E
:1003400093401E00AF4228D825D05346A41BBD4180
:10035000002B00DA7BE000220023009201930123AE
:10036000524693400193012362469340009318E064
:100370008242D0D900220023009201930A9B002BD5
:1003800001D01C605D600098019902B01CBC9046D1
:100390009946A246F0BDA342D7D90022002300927D
:1003A00001936346002BE9D0FB079846414672084B
:1003B0000A437B0866460EE0AB4201D1A2420CD84C
:1003C000A41A9D41012024196D410021013E2418E9
:1003D0004D41002E06D0AB42EED9013E24196D41AD
:1003E000002EF8D100980199534600196941002B5D
:1003F00023DB2B005246D3402A006446E2401C0017
:1004000053461500002B2DDB26005746BE40330017
:1004100026006746BE403200801A99410090019143
:10042000ACE7624620239B1A4A46DA406146130035
:1004300042468A4017001F4380E7624620239B1AEA
:100440002A0066469A402300F3401343D4E76246ED
:10045000202300219B1A0022009101920122DA4000
:10046000019280E72023624626009B1ADE402F007F
:10047000B0466646B74046463B003343C8E7C046F1
:10048000F0B583B016001F000090019100F020F835
:1004900004000D0002000B0030003900FFF704FFDC
:1004A000009A019B121A8B41089920000A604B6048
:1004B000290003B0F0BDC04610B5002903D100F0FB
:1004C000DFF8203002E0081C00F0DAF810BDC0466A
:1004D000F0B54E465746DE464546E0B50F000021D2
:1004E00083B006008946002F06DA3900002746420D
:1004F0008F41012149428946002B07DA4946C94309
:10050000100089461900002342428B4134003D000F
:1005100092469846BB4269D866D041465046FFF79E
:10052000CBFF834639003000FFF7C6FF5B461B1A3E
:100530009C46203B9B4600D575E05146584681407D
:100540000B005146604681400A00BB4261D85ED034
:1005500034003D005946A41A9D41002900DA7AE092
:100560000021002001260090019159468E400196FD
:10057000614601268E4061460096002950D0D90779
:1005800056085F080E4363460EE0AF4201D1A64213
:100590000CD8A41BBD41012124196D410022013B4F
:1005A00064185541002B06D0AF42EED9013B241907
:1005B0006D41002BF8D1009801995B460019694103
:1005C000002B3DDB2E00DE4063462C00DC405B460A
:1005D000002B4BDB34005D46AC4023006446A64054
:1005E0003200801A994103E0B24296D900200021DE
:1005F0004B46002B04D003000C0000215842A141BF
:1006000003B03CBC90469946A246AB46F0BDB14211
:100610009ED9002100200090019161460029AED1B1
:1006200000980199E4E72023624651469B1AD9407D
:100630004046009161468840030000990B4380E7E3
:10064000624620239B1A2A009A4026001300624625
:10065000D6401E43B8E7614620260127761A0020BF
:100660000021F74000900191019781E76746202320
:1006700062463500BC409B1ADD4023002B43ADE7AA
:100680001C2101231B04984201D3000C10391B0AC2
:10069000984201D3000A08391B09984201D3000986
:1006A000043902A2105C40187047C04604030202DD
:1006B0000101010100000000000000000023C25CF5
:1006C0000133002AFBD1581E70470000F0B5C64622
:1006D00000B58AB0434BDA6A042188460A43DA62DD
:1006E000DA6A0A400092009AD96A80221143D962DC
:1006F000D96A0A400192019ADA6A01252A43DA622C
:10070000DA6A2A400292029ADA6A02273A43DA62E5
:10071000DA6A3A400392039AD96A08221143D962ED
:10072000DB6A1A400492049B80239B0105932E4BA5
:1007300006930024079405A92C4800F017FC2C4BC5
:10074000059303260696079405A9284800F00EFC99
:1007500005960696079405A9264800F007FC05951E
:10076000254B0693079405A9204800F0FFFB059749
:10077000069507950894A027FF0505A9380000F005
:10078000F5FB1E4B05930696079405A9380000F06B
:10079000EDFB90235B00059306950794089405A94B
:1007A000380000F0E3FB164B059306960794154FAF
:1007B00005A9380000F0DAFB434605930696079436
:1007C00005A9114800F0D2FB102305930695079563
:1007D000089405A9380000F0C9FB0AB004BC904693
:1007E000F0BDC0460010024000001110000800508B
:1007F000CEDF0000001C005000002110109E000001
:10080000E7FF000000040050000C005010B509483C
:10081000094B036006234360084BC360836000F00C
:1008200071FC002800D110BD3B21054800F00AF8FA
:10083000F9E7C046A800002000300040FF0F00008C
:100840000049000810B50A000100024803F012F840
:10085000FEE7C0461449000800B59DB028490B6862
:10086000284A1A4080231B0113430B600A230E936E
:10087000093B1193102212921393002318930EA890
:1008800000F0EAFC00282FD10F2309930E3B0A93B6
:1008900000230B930C930D93002109A800F0F4FFA3
:1008A000002825D1262300930023049380231B01D5
:1008B000059380239B020193684601F0DBF8002832
:1008C0001AD101F0B1F8FA218900FFF71DFC00F000
:1008D0001DFB042000F036FB0120002200214042D5
:1008E00000F0DAFA1DB000BD98210748FFF7AAFF13
:1008F000A6210548FFF7A6FFB0210348FFF7A2FF96
:1009000000700040FFE7FFFF2849000810B500F025
:1009100097FAFFF7A1FFFFF7D9FE00F0B5F9FFF74F
:1009200075FF00F0F9F900F08FF800F015FA00F00B
:10093000F7F802F0D3FF02F0D9FFFCE700B585B06D
:10094000134802F097FF6B4607330122082102A8E3
:1009500002F0C8FE00280BD06B46D9790D4802F092
:1009600089FF02AB59880C4802F084FF05B000BD36
:100970000A4802F07FFF02A80A230370084B438055
:10098000084B43600122082102F08EFEEEE7C046CC
:100990003C4900085C4900087049000850490008BB
:1009A000A5A5FFFFFFA55AFF10B58CB0F02002F0FF
:1009B000D1FE1D4802F030FFFA20C00000F05EFAC0
:1009C000FFF7BCFF02F0CEFC02F0DDFD174C20006B
:1009D00002F098FD01AB20220021200002F067FD0B
:1009E0006B4604222121200002F061FD09AC2200A7
:1009F000694601A802F0CDFDA1790D4802F00CFF77
:100A0000E379A268110219430A4802F005FF6179EF
:100A1000094802F001FF2179084802F0FDFE09991A
:100A2000074802F0F9FEFEE798490008DC000020C4
:100A3000A4490008B0490008C0490008CC49000892
:100A4000D84900087047000000B587B02448254BFE
:100A50000360002343607F2282608032C2600361B2
:100A600043618361C36101F06DFA002823D101A9BC
:100A700000230B704B708B70CB600B610122184808
:100A800001F0C2FA00281BD101236A46137053708B
:100A900093700023D37001226946114801F03CFB9A
:100AA000002812D1002200210D4801F005FC002889
:100AB00010D107B000BD43210B48FFF7C3FED6E7B6
:100AC00052210948FFF7BEFEDEE75F210648FFF727
:100AD000B9FEE7E769210448FFF7B4FEE9E7C0463D
:100AE000B800002000280040E449000810B5026862
:100AF000094B9A4200D010BD084A116D8023DB02D9
:100B00000B43136500220021022000F0C5F90220EA
:100B100000F0F2F9EFE7C046002800400010024064
:100B200010B50F480F4B036082235B004360002326
:100B30008360C36003614361802292008261C3616C
:100B40000362436283620733C36201F01BFD002826
:100B500000D110BD45210448FFF774FEF9E7C046F7
:100B6000DC00002000300140F849000870B586B074
:100B70000268124B9A4201D006B070BD104A516B08
:100B800080235B010B435363C0230193022602962B
:100B900000240394032504950594A02001A9C00511
:100BA00000F0E4F908230193029603940495059458
:100BB00001A9044800F0DAF9DEE7C0460030014040
:100BC000001002400004005010B50E4B5A6B01217A
:100BD0000A435A63996B802252050A439A6305209F
:100BE00000220021404200F057F90220002200219B
:100BF000404200F051F9012000220021404200F063
:100C00004BF910BD001002407047FEE77047704777
:100C100010B500F025F900F0A5F910BD10B5024897
:100C200001F01CFC10BDC046B8000020104B196834
:100C3000802252000A431A60DA680E490A40DA60DC
:100C40001A680D490A401A609A6801218A439A601D
:100C50001A680A490A401A60DA6809490A40DA60E3
:100C600000221A61074B802212059A607047C04625
:100C7000001002400C40FF88F6FFF6FEFFFFFBFF6E
:100C8000FFFF02FF00ED00E000B587B01748184BEA
:100C90000360002343608360C360036101F0F2FEE0
:100CA000002813D180235B01029302A90F4801F0B1
:100CB00003FF00280FD100230093019369460B48DE
:100CC00001F086FF00280BD107B000BD3E21094886
:100CD000FFF7B8FDE6E744210648FFF7B3FDEAE772
:100CE0004B210448FFF7AEFDEEE7C046340100207B
:100CF000000801400C4A00080268054B9A4200D0E7
:100D00007047044A536B04210B435363F8E7C04612
:100D1000000801400010024010B50C480C4B036065
:100D200096239B01436000238360C36003610C2210
:100D3000426183610362436202F05EFA002800D1DF
:100D400010BD44210348FFF77DFDF9E76C01002049
:100D500000480040204A000810B50D480D4B0360C4
:100D6000E1235B02436000238360C36003610C22C4
:100D700042618361C3610362436202F03DFA00286D
:100D800000D110BD59210448FFF75CFDF9E7C046CA
:100D9000DC01002000440040204A000800B587B074
:100DA0000368194A934204D0184A934215D007B0F9
:100DB00000BD174A916B8023DB020B439363302302
:100DC00001932E3B02930022039203320492059377
:100DD00001A9104800F0CAF8E9E70D4A916B802399
:100DE0009B020B4393630C2301930A3B0293002362
:100DF00003930333049301330593A02001A9C00595
:100E000000F0B4F8D3E7C04600480040004400407A
:100E1000001002400008005010B50400074B18688D
:100E2000FA218900FFF770F900F070F80120002224
:100E30002100404200F030F8002010BD00000020EA
:100E400010B5064A136840210B4313600020FFF7DA
:100E5000E3FFFFF7B9FE002010BDC04600200240AE
:100E6000024A1368013313607047C0464C020020E9
:100E7000014B18687047C0464C02002010B582B084
:100E80000190FFF7F5FF0400FFF7F2FF001B019B45
:100E90009842F9D302B010BD70B5002811DB840868
:100EA000134DC034A400625903231840C000FC3322
:100EB0001E008640B24389010B40834013436351B7
:100EC00070BDC0B20F220240083A9208063292006A
:100ED000084BD3185D6803242040C000FF22140093
:100EE0008440A54389010A4082402A435A60E7E7CB
:100EF00000E100E000ED00E01F2318401E3B8340AE
:100F0000014A13607047C04600E100E001380A4B17
:100F100098420FD8094A50600948036A1B021B0A0D
:100F2000C02109060B43036200239360073313605B
:100F3000002070470120FCE7FFFFFF0010E000E009
:100F400000ED00E0042805D0054A136804218B4316
:100F500013607047024A136804210B431360F8E7DB
:100F600010E000E010B502F095FF10BDF0B5C646E8
:100F700000B5002338E0052600E00026AE4035002D
:100F80003D430234A400554EA551554C25684246B8
:100F9000D4432E0026404A68D20302D54246154368
:100FA0002E004F4D2E606D682E0026404A68920339
:100FB00002D5424615432E00494D6E60AD682E00A5
:100FC00026404A68D20202D5424615432E00444DBF
:100FD000AE60ED682C404A68920202D542462A4330
:100FE00014003F4AD46001330A681400DC4072D018
:100FF00001249C4022409046F5D04D68022D01D03E
:10100000122D0ED1DD080835AD002F5807261E40E1
:10101000B6000F22B24097430A69B24016003E4321
:101020002E504D686E1E012E03D9112D01D0122DA8
:1010300012D185685F000326BE40B5432E00CD68FF
:10104000BD40354385604568A5434A6816090124BB
:1010500034409C402C43446007685E000324250014
:10106000B540ED432F404A681440B4403C4304600F
:10107000C46825408C68B4402C43C4604A68D200E0
:10108000B1D5184D6C6B012634436C639C08A51CCC
:10109000AD00124EAF5903261E40B5000F26AE40DC
:1010A000B743A026F605B04200D166E70E4EB04227
:1010B0000BD00E4EB0420AD00D4EB04209D00D4EAC
:1010C000B04200D157E7062658E7012656E7022628
:1010D00054E7032652E704BC9046F0BD00000140EF
:1010E00000040140001002400004005000080050BD
:1010F000000C0050001C0050002A01D18162704792
:101100008161FCE770B5041E24D00368124A1A609E
:101110000368124A1A60036842685A60036882686A
:101120009A60FFF7A5FE05002368DA68002A06D05A
:10113000FFF79EFE401B3028F6D903200BE019690B
:10114000E268914202D01A61002004E0044A1A6069
:10115000002000E0012070BDCCCC000055550000FF
:10116000AAAA00000368024A1A6000207047C0461D
:10117000AAAA000010B50C4A13680324A34318431D
:1011800010600A4A1369042003431361012908D03F
:1011900040BF20BF20BF054A136904218B43136160
:1011A00010BD30BFF7E7C0460070004000ED00E022
:1011B000034A11688023DB000B4313607047C0466D
:1011C00000700040034A116880239B000B431360AA
:1011D0007047C0460070004030B51B4BDB68F02202
:1011E000134022D1184A926BD2000ED5174A1268CA
:1011F000C02149010A40C02149018A4216D1C022BA
:101200001202904212D1012310E00F498C6B802210
:10121000520522438A630D4A1268C02464012240A9
:101220008C6B0B4D2C408C63E5E70023094802686A
:1012300001218A431A43026002681140994201D099
:10124000012030BD0020FCE700100240007000408B
:10125000FFFFFFEF0020024070B582B0040003687A
:10126000DB0740D5CC4BDA680C231340082B32D077
:10127000C94BDA680C2313400C2B28D063688022FA
:101280005202934257D0A022D20293425AD0C24B6C
:101290001A68C2490A401A601A68802149020A4045
:1012A0000192019A1A68BE490A401A606368002BCD
:1012B00054D0FFF7DDFD0500B74B1B689B0312D42C
:1012C000FFF7D6FD401B6428F6D903206BE2B24B32
:1012D000DB68DB03D2D5B04B1B689B0303D5636887
:1012E000002B00D158E223689B075AD5AA4BDA6835
:1012F0000C231340042B43D0A74BDA680C23134074
:101300000C2B39D0E368002B00D1ADE0A2490A686C
:101310000920824313430B60FFF7AAFD05009E4B93
:101320001B685B0700D596E0FFF7A2FD401B022873
:10133000F5D9032037E2984A116880235B020B43FA
:101340001360B3E7944B19688022D2020A431A60F3
:101350001968802252020A431A60A7E7FFF788FD46
:1013600005008D4B1B689B03BDD5FFF781FD401B1E
:101370006428F6D9032016E2874BDB68DB03C1D46F
:10138000854B1B685B0704D5E368012B01D0012066
:1013900009E281494B68834A1340226912021343D0
:1013A0004B602368DB063BD57B4BDB680C221A4283
:1013B00000D080E0784B1B689B0503D5E369002BC8
:1013C00000D1EBE1606A744B5B68E02212021340CB
:1013D00098425CD9FFF700FF002800D0E0E16E4A98
:1013E000536871490B40616A0B43536053681B0299
:1013F0001B0A216A09060B435360636A5A0B0132C8
:1014000080231B029340644AD16809090F220A40D5
:1014100066498A5CD340664A13600020FFF7FCFCF3
:1014200023681B0700D492E06369002B7CD05A4AE2
:10143000136D01210B431365FFF71AFD0500564B91
:101440001B6D9B0700D582E0FFF712FD401B0228B1
:10145000F5D90320A7E150494B68524A134022694D
:10146000120213434B609CE74B4A136801218B43E4
:101470001360FFF7FDFC0500474B1B685B0790D529
:10148000FFF7F6FC401B0228F6D903208BE1424A05
:10149000536845490B401843506053681B021B0AB0
:1014A000216A09060B435360606AFFF795FE002826
:1014B000A3D0012077E1E369002B22D0364A1168DE
:1014C00080235B000B431360FFF7D2FC0500324B17
:1014D0001B689B0506D4FFF7CBFC401B0228F6D9FE
:1014E000032060E12C4A53682F490B40616A0B438B
:1014F000536053681B021B0A216A09060B435360A1
:101500008EE7254A13682B490B401360FFF7B0FCA8
:101510000500214B1B689B0582D5FFF7A9FC401BEA
:101520000228F6D903203EE11B4A136D01218B43AB
:101530001365FFF79DFC0500174B1B6D9B0706D538
:10154000FFF796FC401B0228F6D903202BE1236805
:101550005B0700D48DE0104B9B6BDB0030D40E4A50
:10156000916B80235B050B4393630125124B1B6832
:10157000DB0527D5A36880225200934236D0002B8A
:101580004CD1054B1A6D0B490A401A651A6D0B496F
:101590000A401A6530E0C04600100240FFFFFEFF1F
:1015A000FFFFFBFFFFE0FFFFFF1FFFFF7848000882
:1015B00000000020FFFEFFFF00700040FFFBFFFF68
:1015C0000025D3E77A4A116880235B000B43136040
:1015D000FFF74EFC0600764B1B68DB05CAD4FFF70D
:1015E00047FC801B6428F6D90320DCE0714A116DAA
:1015F00080235B000B431365A368002B28D0FFF703
:1016000037FC06006B4B1B6D9B0530D4FFF730FC9D
:10161000801B694B9842F5D90320C4E0A022D20078
:10162000934209D0634B1A6D64490A401A651A6DDA
:1016300063490A401A65DFE75E4B196D013AFF3ACC
:101640000A431A65196D802252000A431A65D3E7CE
:10165000FFF70EFC0600574B1B6D9B0507D5FFF7E8
:1016600007FC801B544B9842F5D903209BE0012DC9
:1016700021D023689B063CD5A369002B21D04D4B7C
:1016800099680120014399605A6B02435A634D4A9D
:10169000116A80239B010B431362FFF7E9FB0500EE
:1016A000444B9B689B0724D4FFF7E2FB401B0228B6
:1016B000F6D9032077E03F4A936B43490B4093638D
:1016C000D7E73C4A936801218B4393603D4A136AF4
:1016D0003E490B401362FFF7CBFB0500354B9B687F
:1016E0009B0706D5FFF7C4FB401B0228F6D9032051
:1016F00059E0A36A002B55D02E4AD1680C220A402B
:101700000C2A52D0022B12D02A4A136830490B40BF
:101710001360FFF7ADFB0400264B1B689B0139D516
:10172000FFF7A6FB001B0228F6D903203BE0214A65
:10173000136827490B401360FFF79AFB05001D4B08
:101740001B689B0106D5FFF793FB401B0228F6D9C7
:10175000032028E01749CB681E4A1340E26A206B39
:101760000243606B02431343CB600A6880235B042F
:1017700013430B60FFF77CFB04000E4B1B689B01BF
:1017800006D4FFF775FB001B0228F6D903200AE0F8
:10179000002008E0002006E0012004E0012002E033
:1017A000012000E0002002B070BD0120FBE7C04630
:1017B000007000400010024088130000FFFEFFFF91
:1017C000FFFBFFFF00000140FFFFFFEFFFDFFFFF18
:1017D000FFFFFFFEFFFF02FF10B5264BD9680C2369
:1017E0000B40082B42D00C2B11D0042B09D0214BDD
:1017F0005A68520B0723134001338020000298409F
:1018000010BD1C4B1B68DB0632D51B48F8E78A0C61
:101810000F231340194AD05C890D03221140013176
:10182000144BDB68DB030DD4124B1B68DB0613D5AE
:101830004201121A93019B1ADB001B181802FEF7D3
:1018400063FCDDE74201121A93019B1ADB001B18AF
:101850005802FEF759FCD3E74201121A93019B1A72
:10186000DB001B189802FEF74FFCC9E70448C7E7E6
:101870000448C5E70010024000093D006C4800081C
:1018800000127A000024F40070B504000D005F4BD4
:101890001A68012313408B420BD25C490B6801226A
:1018A00093432B430B600B681A40AA4201D00120DE
:1018B00070BD23689B0706D5554AD368F0218B433A
:1018C000A1680B43D3602368DB0764D56368022BF0
:1018D00009D0032B29D0012B2DD04D4A1268920537
:1018E00006D40120E4E74A4A1268920300D48AE051
:1018F0004749CA68032082431343CB60FFF7B8FA15
:1019000006006368022B1CD0032B28D0012B34D097
:101910003F4BDB680C221A423DD0FFF7A9FA801B2F
:101920003C4B9842F4D90320C2E7394A126892012D
:10193000DED40120BCE7364A12685207D8D4012011
:10194000B6E7334BDA680C231340082B23D0FFF79C
:101950008FFA801B2F4B9842F3D90320A8E72C4B1A
:10196000DA680C2313400C2B15D0FFF781FA801B8B
:10197000284B9842F3D903209AE7254BDA680C23C9
:101980001340042B07D0FFF773FA801B214B9842BA
:10199000F3D903208CE71D4B1A6801231340AB4297
:1019A0000BD91A490B68012293432B430B600B6838
:1019B0001A40AA4201D001207AE723685B0706D5C6
:1019C000134AD36814490B40E1680B43D360236882
:1019D0001B0707D50E49CB68104A13402269D20075
:1019E0001343CB60FFF7F8FE094BDA6812090F23A7
:1019F00013400B4AD35CD8400A4B18600020FFF715
:101A00000BFA002054E7012052E7C04600200240B4
:101A10000010024088130000FFF8FFFFFFC7FFFF20
:101A20007848000800000020014B18687047C04645
:101A30000000002010B5FFF7F7FF044BDA68120A28
:101A400007231340024AD35CD84010BD0010024067
:101A50008848000810B5FFF7E7FF044BDA68D20AA0
:101A600007231340024AD35CD84010BD0010024047
:101A70008848000870B5040082231B0102681A42DE
:101A80005AD0704B9B6BDB0000D593E06D4A916B95
:101A900080235B050B43936301256B4B1B68DB05C0
:101AA00000D489E0674B1A68C0239B031A40616821
:101AB0000B40934200D194E0C0239B020A001A40DD
:101AC0009A4200D195E05F4B1B6DC02292021340F9
:101AD0001FD01140994202D02268920608D4C02239
:101AE0009202A1680A409A4213D023681B0510D5C0
:101AF000544B186D554A02401E6D80210903314335
:101B00001965196D524E314019651A65C30500D526
:101B100076E06368C022920219001140914200D120
:101B20007EE048490B6DC022920260680240134378
:101B30000B65012D00D17DE02368DB0706D5414A06
:101B4000D36C03218B43E1680B43D36423689B0769
:101B500006D53C4AD36C0C218B4321690B43D364DB
:101B600023685B0706D5374AD36C3A490B40616955
:101B70000B43D36423681B0706D5324AD36C36491E
:101B80000B40A1690B43D36423685B0606D52D4A3D
:101B9000D36C32490B40216A0B43D36423681B0684
:101BA0004ED5284AD36C2E490B40E1690B43D364D0
:101BB000002070BD002570E7234A116880235B0078
:101BC0000B431360FFF754F906001F4B1B68DB053E
:101BD00000D567E7FFF74CF9801B6428F5D903208F
:101BE000E7E7C0239B03A0680340934200D063E76C
:101BF00069E7144B1B689B0300D464E70120D8E716
:101C0000FFF736F906000F4B1B6D9B0500D580E7EB
:101C1000FFF72EF9801B134B9842F4D90320C8E735
:101C200008490A6810480240C0208003034013435B
:101C30000B6076E70A008B6B0C490B4093637BE7E4
:101C40000020B6E70010024000700040FFFFFCFFDC
:101C5000FFFFF7FFFFF3FFFFFFCFFFFFFFFFFFFBDC
:101C6000FFFFF3FF88130000FFFFCFFFFFFFFFEF31
:101C700010B5082800D1EBE00AD8022800D1A2E074
:101C8000042800D1BEE0012800D17DE0002010BD75
:101C900020282ED020D9402827D1854BDB6C8022EC
:101CA000D204134066D1824A1268920162D5804BF9
:101CB000D868D968800C0F2202407E48805C8A0D6B
:101CC000032111400131DB68DB034ED4784B1B68E4
:101CD000DB0648D4784B49E01028D7D1744B9B6B76
:101CE0005B0200D5D0E00020D1E780231B019842A1
:101CF000CCD16F4B196D1B6DC02292021340802214
:101D00005202934209D08022920293420AD0C0220A
:101D1000920293420AD00020B9E78A05F3D58020C9
:101D20000002B4E78A07F2D56448B0E7604B1B684D
:101D30009B0300D4ABE05E4B1B68C02292031340B0
:101D400080229203934200D1A3E0C02292039342E7
:101D500005D080225203934203D0594897E759484F
:101D600095E7594893E7564B00E0584B5843FEF728
:101D7000CBF98CE7002B00D18DE04D4B9B689B0786
:101D800000D58AE0002082E7494BDA6C0323134038
:101D900007D0022B08D0012B0CD0032B0DD0002034
:101DA00075E7FFF757FE72E7414A12685207F2D50E
:101DB00041486CE7FFF710FD69E73D4B1B6D9B0544
:101DC0006DD4002063E73A4BDA6C0C23134007D044
:101DD000082B08D0042B0CD00C2B0DD0002056E77C
:101DE000FFF728FE53E7324A12685207F2D532480D
:101DF0004DE7FFF7F1FC4AE72D4B1B6D9B0551D4D6
:101E0000002044E72A4BDB6CC022120113400DD0A6
:101E10008022120193420CD08022D20093420ED035
:101E2000C022120193420DD0002030E7FFF702FEDE
:101E30002DE71F4A12685207EED51F4827E7FFF724
:101E4000CBFC24E71A4B1B6D9B052ED400201EE70C
:101E5000174BDB6CC0229201134009D08022920103
:101E6000934208D08022520193420AD000200EE70C
:101E7000FFF7E0FD0BE70E4A12685207F2D50E4855
:101E800005E7FFF7A9FC02E7FFF7D4FDFFE6002016
:101E9000FDE60F48FBE60020F9E60E48F7E6802055
:101EA0000002F4E680200002F1E680200002EEE667
:101EB000001002406C4800080024F40088900000E4
:101EC00000093D0020A1070080841E0000127A0056
:101ED00040420F00006CDC0270B504000268D36859
:101EE000A0218B43D360FEF7C3FF05002368DB68A6
:101EF0009B0608D4FEF7BCFF401BFA239B009842C8
:101F0000F4D9032000E0002070BD70B50400036820
:101F1000DA68520601D5002070BD01225242DA6013
:101F2000FEF7A6FF05002368DB685B0608D4FEF712
:101F30009FFF401BFA239B009842F4D90320EBE754
:101F40000020E9E770B5041E4ED02123C35C002BAE
:101F50003CD021230222E2542368C8325A6223680B
:101F6000773A5A622000FFF7D0FF002834D1226868
:101F700093681E490B40936021688A6863682569ED
:101F80002B43A5692B4313438B602368E2681A61D6
:101F900021680B69A268120413430B612268D3689D
:101FA00080218B43D3602268D36C7D398B43D3640B
:101FB0002168CB6CE26965692A431343CB642368CB
:101FC000FF225A622123FE3AE25470BD20330022E0
:101FD000C254FEF78BFDBCE72368FF225A6221231F
:101FE000FB3AE2540120F0E70120EEE7BFFF8FFF4C
:101FF000002302E001330A38C0B20928FAD81B01D5
:10200000DBB2184370470000F8B504000E0020232F
:10201000C35C012B00D178E020230121C15401339E
:102020000131C154002A43D103689B685B0601D487
:102030000023F3703078FFF7DBFF05047078FFF7BB
:10204000D7FF00020543B078FFF7D2FF0543F078D1
:10205000000405432368CA225A622368773A5A6209
:102060002000FFF752FF071E33D1236828480540A0
:102070001D602268936827490B40936021688B6834
:10208000F2683069024313438B602268D368802171
:102090008B43D36023689B689B0626D52368FF2269
:1020A0005A622123FE3AE254013B0022E2541AE034
:1020B00003689B685B0601D40023F37035782D0418
:1020C000707800020543B0780543F07800040543BA
:1020D000C0E72368FF225A622123FB3AE254013B06
:1020E0000022E25401273800F8BD2000FFF7F4FE7B
:1020F0000028D3D02368FF225A622123FB3AE254FE
:10210000013B0022E2540127EDE70227EBE7C0463E
:102110007F7F7F00FFFFFBFF70B504000E002023D0
:10212000C35C012B69D020230121C154013301314B
:10213000C154002A06D17378D90603D510218B43E8
:102140000A337370002A31D1F078FFF751FF05048C
:102150007078FFF74DFF00020543B078FFF748FFA6
:1021600005433078400305432368CA225A62236836
:10217000773A5A622000FFF7C8FE061E21D1236875
:102180001F4805405D602268D36880218B43D3607F
:1021900023689B689B0620D52368FF225A6221236F
:1021A000FE3AE254013B0022E25414E07378B07826
:1021B000F5782D041B021D43054330784003054389
:1021C000D2E72368FF225A622123FB3AE254013B03
:1021D0000022E2540126300070BD2000FFF77CFE93
:1021E0000028D9D02368FF225A622123FB3AE25407
:1021F000013B0022E2540126EDE70226EBE7C04650
:102200003FFFFF00020993009B185A000F2318405C
:102210008018C0B270470000F8B50C0003689B6AD4
:102220004B6003681B695B045B0C8B6003681B6875
:102230000E490B401E0C3F20304020701D0A7F27A6
:102240003D4065701F40A77040213140E170002A79
:102250000AD1FFF7D7FF20702800FFF7D3FF607087
:102260003800FFF7CFFFA0700020F8BD7F7F7F0010
:1022700070B50C0003685B680E490B40180CE070E9
:10228000190A1F260E4066703F251D40A5705B0B86
:1022900007210B402370002A0AD1FFF7B3FFE0703B
:1022A0003000FFF7AFFF60702800FFF7ABFFA070B2
:1022B000002070BD3FFFFF00F8B504000E001500C0
:1022C0002023C35C012B00D177E020230122C254DC
:1022D00001330132C2540368C8325A620368773A44
:1022E0005A6203689B685B0518D5FEF7C1FD0700BD
:1022F0002368DB685B0711D5FEF7BAFDC01BFA2324
:102300009B009842F4D92368FF225A622123FC3AA9
:10231000E254013B0022E25403204DE0226893681E
:1023200027490B4093602168CA68FF231A40254B58
:102330001343CB60FEF79CFD07002368DA68520761
:1023400011D4FEF795FDC01BFA239B009842F4D9E7
:102350002368FF225A622123FC3AE254013B002207
:10236000E254032028E05E612268936807218B43D2
:102370009360226893681D439560134B196880220F
:1023800052031143196099680A439A602268916860
:102390008023DB010B439360226891688023DB007C
:1023A0000B4393602368FF225A622123FE3AE254D2
:1023B000013B0022E2540020F8BD0220FCE7C046A9
:1023C000FFFBFFFF7FFBFFFF0004014070B504002F
:1023D0002023C35C012B38D020230122C2540133B7
:1023E0000132C2540368C8325A620368773A5A62AB
:1023F0000268936816490B40936002689368154918
:102400000B409360FEF734FD05002368DA6852073D
:1024100011D4FEF72DFD401BFA239B009842F4D9FE
:102420002368FF225A622123FC3AE254013B002236
:10243000E254032008E0FF225A622123FE3AE254CC
:10244000013B0022E254002070BD0220FCE7C046A0
:10245000FFFBFFFFFFBFFFFF7047000010B5040048
:102460000368DB685B0507D4084B802252035A617E
:1024700021230122E25410BDFFF7EEFF2168CA6854
:10248000FF231A40024B1343CB60EDE700040140E9
:102490007FFBFFFFF0B5C64600B506000C00170035
:1024A0001D00FEF7E5FC8046002F31D033689B68A5
:1024B0002340A34262D16B1CF8D0002D05D0FEF75B
:1024C000D7FC4346C01AA842F0D932685368E021CD
:1024D0008B43536032681368A0398B4313608023A9
:1024E0009B01B26A9A423DD051230122F254013B32
:1024F0000022F254032032E03268136820490B4076
:1025000013603268116880239B010B4313601DE048
:1025100033689B682340A34220D06B1CF8D0002D69
:1025200005D0FEF7A5FC4346C01AA842F0D9326890
:102530005368E0218B43536032681368A0398B43A2
:10254000136080239B01B26A9A42D5D051230122A5
:10255000F254013B0022F254032000E0002004BCAE
:102560009046F0BD3268136805490B40136032682D
:10257000116880239B010B431360B5E70020EEE751
:10258000FFDFFFFF10B5041E3CD05123C35C002BBE
:1025900032D051220223A35421680B684020834388
:1025A0000B606368A1680B43E1680B4321690B432F
:1025B00061690B4380218900A06901400B43E169F7
:1025C0000B43216A0B432168A06A03430B60618BB4
:1025D00004230B402168606A03434B602368E16A6F
:1025E00019612168CB6908480340CB61002363650A
:1025F0000133A354002010BD50330022C254FEF713
:10260000B5FAC6E70120F6E7FFF7FFFF30B583B064
:10261000040068460025C5805120205C012804D0B4
:102620005120205C222800D0A8E1002900D1A8E197
:10263000002A00D1A7E1002B00D1A6E15020205CA8
:10264000012800D1A3E15020012525540130205C50
:10265000012868D000206065A263A387E387216317
:10266000A386E386A064E06480239B01A26A9A4269
:102670005DD023681A68520603D41A6840210A43C1
:102680001A6080231B01E2689A425CD06368002BC9
:1026900007D08222520093420DD1E38E9BB2012BD0
:1026A00009D1236B5A1C226322681B78D360E38E06
:1026B000013B9BB2E386E38E9BB2002B00D0ECE0A3
:1026C00080239B01A26A9A4200D1CCE0069B0022A3
:1026D00001212000FFF7DEFE002800D061E1236821
:1026E000DB68A26B1370E38F013B9BB2E38780230F
:1026F0009B01A26A9A4200D10DE1069B0122802132
:102700002000FFF7C7FE002800D019E15123012265
:10271000E25480239B01A26A9A4200D116E1502321
:102720000022E2542BE150303135255492E72268E3
:102730001368A0490B4013602268116880239B0135
:102740000B43136095E76368002B07D08222520089
:1027500093420ED1E38E9BB2012B0AD12368226BE8
:102760001288DA60236B02332363E38E013B9BB252
:10277000E386E38E9BB2002B34D180239B01A26AB7
:102780009A4214D0069B002201212000FFF782FE0E
:10279000002800D0FDE02368DB68A26B1380A36BE8
:1027A0000233A363E38F013B9BB2E3879FE7226879
:1027B000116880235B010B431360E3E7069B002253
:1027C00001212000FFF766FE002800D0E5E0236825
:1027D000DB68A26B1380A36B0233A363E38F013B1F
:1027E0009BB2E387E38E9BB2002B23D0069B002293
:1027F00002212000FFF74EFE002800D0CBE0236826
:10280000226B1288DA60236B02332363E38E013B71
:102810009BB2E386E38E9BB2002BCFD180239B013A
:10282000A26A9A42CAD12268116880235B010B43D5
:102830001360C3E76368002B00D058E7069B0022B3
:1028400001212000FFF726FE002800D0A7E0236822
:10285000DB68A26B1380A36B0233A363E38F013B9E
:102860009BB2E38743E72268116880235B010B4337
:1028700013602BE7069B002201212000FFF70AFED0
:10288000002800D091E02368DA68A36B591CA1638B
:102890001A70E38F013B9BB2E387E38E9BB2002B60
:1028A00022D0069B002202212000FFF7F3FD002822
:1028B00000D078E0236B5A1C226322681B78D36017
:1028C000E38E013B9BB2E386E38E9BB2002BD1D11A
:1028D00080239B01A26A9A42CCD12268116880238E
:1028E0005B010B431360C5E76368002B00D0FEE675
:1028F000069B002201212000FFF7CCFD002856D1C5
:102900002368DA68A36B591CA1631A70E38F013B3B
:102910009BB2E387EBE6069B002201212000FFF734
:10292000B9FD002806D12368DB689BB26A46D380D4
:10293000D388E2E6636D02221343636503201EE041
:10294000636D202213436365032018E023689A68AF
:10295000D20600D4E3E6626D02210A4362651A687A
:1029600014490A401A602268116880239B010B43B6
:10297000136050230022E254012000E0022003B043
:1029800030BD0120FBE70120F9E70120F7E7022035
:10299000F5E70320F3E70320F1E70320EFE7032047
:1029A000EDE70320EBE70320E9E70320E7E7032057
:1029B000E5E7C046FFDFFFFF03688022D2059042B3
:1029C00005D0104A904202D00F4A904203D17022A3
:1029D00093434A6813438022D205904205D0094AA6
:1029E000904202D0084A904203D1084A1340CA6874
:1029F000134303608B68C3620B68836201234361E6
:102A00007047C0460008014000140140FFFCFFFF72
:102A100030B5036A046A0125AC4304628469EF356A
:102A2000AC43120122430A24A34319438261016289
:102A300030BD000030B5036A1024A34303628469EB
:102A4000036A054D2C4012032243A024A34309012D
:102A500019438261016230BDFF0FFFFF836870225E
:102A600093430722114319438160704730B584684E
:102A7000034D2C401B021A4311432143816030BD9A
:102A8000FF00FFFF70B5041E14D03523C35C002B7C
:102A90000AD0352502236355211D2068FFF78CFFDE
:102AA00001236355002070BD34330022C254FEF769
:102AB00023F9EEE70120F6E710B504003423C35CE8
:102AC000012B00D17FE034230122C25401330132B3
:102AD000C254026893683D48034093600B68402BE2
:102AE0005DD010D9702B43D020D8502B4DD0602B07
:102AF00036D1CA6849682068FFF79CFF60212068CA
:102B0000FFF7ACFF2CE0102B53D008D9202B55D069
:102B1000302B25D130212068FFF7A0FF20E0002BCB
:102B20001ED100212068FFF799FF19E08022520191
:102B3000934210D080229201934211D1CB684A680F
:102B400089682068FFF792FF226891688023DB0183
:102B50000B43936004E02268936807218B439360E2
:102B600035230122E254013B0022E254002010BD33
:102B7000CB684A6889682068FFF778FF2268936805
:102B800077218B430B439360EAE7CA684968206862
:102B9000FFF73EFF50212068FFF760FFE0E7CA68BB
:102BA00049682068FFF734FF40212068FFF756FF8F
:102BB000D6E710212068FFF751FFD1E720212068D8
:102BC000FFF74CFFCCE70220D1E7C0468800FFFFAB
:102BD000F0B53423C35C012B1ED03422012585546B
:102BE000352402230355066873687027BB4373605E
:102BF000066873680F683B4373600668B368802794
:102C0000BB43B3600668B36849680B43B3600555BE
:102C1000002383540020F0BD0220FCE7F8B5040037
:102C2000016883680269134342691343C26913430D
:102C30000A68BA48024013430B6022685368B849D7
:102C40000B40E1680B435360A1692268B54B9A427F
:102C500001D0236A19439368B34803400B43936040
:102C60002368B24A93421AD0B14A93422BD0AD4A5C
:102C700093423DD010250220FEF7FAFF2668A94BAB
:102C80009E4257D080231B02E2699A4200D18CE019
:102C9000082D00D940E1AD00A64B5B599F46A64BDD
:102CA000DA6C03231340012B09D0002B05D0022B33
:102CB0003AD0032B05D01025DDE70125DBE70425FD
:102CC000D9E70825D7E79C4BDA6C0C231340042B7B
:102CD0000AD005D9082B29D00C2B07D10825CAE723
:102CE000002B03D10025C6E70425C4E71025C2E761
:102CF000914BDB6CC022120113408022D200934220
:102D00000ED009D980221201934211D0C0221201A3
:102D1000934207D10825AEE7002B03D10025AAE78F
:102D20000425A8E71025A6E70225A4E70225A2E7C7
:102D30000225A0E7022D2DD007D9042D30D0082D73
:102D400000D0DFE08020000207E0002D00D0D9E0B5
:102D5000FEF770FE002800D1D6E0626853009B1891
:102D6000834200D9D2E01303834200D2D0E0070EA1
:102D7000060250080021801979410023FDF774FAFA
:102D80006E4BC2186E4B9A4200D9C3E02368D860DC
:102D9000002022E0684B1B68DB0604D46948DCE7AE
:102DA000FEF71AFDD6E76848D7E7082D54D8AD00DE
:102DB000664B5B599F46400063685B08C0186168BA
:102DC000FDF7A2F983B200200F22190091435B1096
:102DD000083A13400B432268D360F8BDFEF73AFE71
:102DE000400063685B08C0186168FDF78DF983B225
:102DF0000020E9E7504B1B68DB060AD563685808DA
:102E0000534B9C4660446168FDF77EF983B2002015
:102E1000DAE7636858084F4B9C4660446168FDF7E9
:102E200073F983B20020CFE7FEF7D6FC4000636859
:102E30005B08C0186168FDF767F983B20020C3E73B
:102E40006368580880235B029C4660446168FDF714
:102E50005BF983B20020B7E701200023B4E7FEF757
:102E6000E9FD63685B08C0186168FDF74DF92368E8
:102E70000004000CD8600020AFE7FEF7EBFD6368AC
:102E80005B08C0186168FDF73FF923680004000C77
:102E9000D8600020A1E7284B1B68DB060BD56168D2
:102EA0004808294B9C466044FDF72EF90004000CAD
:102EB000F060002091E761684808224B9C4660441E
:102EC000FDF722F90004000CF060002085E7FEF712
:102ED00083FC63685B08C0186168FDF715F9236817
:102EE0000004000CD860002077E761684808802360
:102EF0001B029C466044FDF707F90004000CF060DB
:102F000000206AE7012068E7002066E7012064E707
:102F1000012062E7012060E701205EE7F369FFEF2F
:102F2000FFCFFFFF00480040FFF4FFFF00380140E3
:102F300000440040904800080010024000FDFFFFE0
:102F4000FFFC0F000024F40000093D00B448000815
:102F500000127A000048E801436ADB0706D50268E0
:102F600053682C490B40816A0B435360436A9B07AB
:102F700006D50268536828490B40C16A0B43536069
:102F8000436A5B0706D50268536824490B40016B0E
:102F90000B435360436A1B0706D5026853682049F8
:102FA0000B40416B0B435360436ADB0606D5026856
:102FB00093681C490B40816B0B439360436A9B06EB
:102FC00006D50268936818490B40C16B0B439360A8
:102FD000436A5B060BD50268536814490B40016CC9
:102FE0000B43536080235B03026C9A420AD0436A0E
:102FF0001B0606D5026853680D490B40816C0B43D4
:1030000053607047026853680A490B40416C0B4398
:103010005360ECE7FFFFFDFFFFFFFEFFFFFFFBFF3D
:10302000FF7FFFFFFFEFFFFFFFDFFFFFFFFFEFFF70
:10303000FFFFF7FFFFFF9FFFF0B5C64600B5060094
:103040000C0017009846069D3368DB6923401B1B64
:103050005A425341BB421ED16B1CF5D0002D05D006
:10306000FDF706FF4346C01AA842EDD9326813683F
:103070000B490B40136032689368A331FF318B43D7
:10308000936020236922B3540132B35448330022A1
:10309000F254032000E0002004BC9046F0BDC0467E
:1030A0005FFEFFFFF0B585B004000E0017001D00A5
:1030B0006923C35C202B59D100295AD0002A5AD049
:1030C00080235B0182689A4213D06823E35C012B62
:1030D00053D068230122E2540023E366693320328F
:1030E000E254FDF7C5FE03905023E7520233E75246
:1030F0000AE00369002BE8D1CB07E6D5012036E0D2
:10310000327823689A6201365223E35A9BB2002B2D
:103110001CD05222A35A013B9BB2A3520095039BA1
:10312000002280212000FFF787FF002827D180237D
:103130005B01A2689A42E3D12369002BE0D1338876
:103140002268DB05DB0D93620236DDE70095039B09
:10315000002240212000FFF76FFF002811D16923D2
:103160002022E254013B0022E25400E0022005B09C
:10317000F0BD0120FBE70120F9E70220F7E703207B
:10318000F5E70320F3E7000030B583B00400002327
:10319000C366FDF76DFE050023681B681B070ED490
:1031A00023681B685B0717D420236922A3540132CC
:1031B000A35448330022E254002003B030BD8021E4
:1031C0000C4B00930300002289032000FFF734FF1B
:1031D0000028E5D00320F0E78021064B00932B0068
:1031E0000022C9032000FFF727FF0028DCD00320BE
:1031F000E3E7C046FFFFFF0110B5041E30D069238E
:10320000C35C002B22D069232422E2542268136875
:1032100001218B431360636A002B1DD12000FFF74F
:10322000FDFC012811D0226853680E490B40536001
:10323000226893682A218B43936022681368293996
:103240000B4313602000FFF79FFF10BD683300227F
:10325000C254FDF7A3FDD6E72000FFF77DFEDDE7B2
:103260000120F2E7FFB7FFFF10B582B00091019295
:1032700093B201684A681024A2431A434A60016865
:103280004B681B021B0A6A469279120613434B6075
:1032900002B010BD10B584B00400029103926823FF
:1032A000C35C012B33D001216823C1540133242294
:1032B000C254026813688B43136001688B68154A17
:1032C0001340029A13438B60002A15D022681368BA
:1032D00001210B431360FDF7CBFD030080210E4A53
:1032E00000920022C9032000FFF7A6FE002808D1A3
:1032F00069232022E25405E01100039AFFF7B4FF8E
:10330000E4E7032068230022E25404B010BD022049
:10331000FBE7C046FFFFCFFFFFFFFF0130B568238B
:10332000C35C012B10D0682201238354692123330D
:1033300043540468236802252B432360202343540D
:1033400000238354002030BD0220FCE710B510217B
:10335000012000F0D2FB10BD10B51021012000F0BB
:10336000C3FB10BD10B5FFF7F7FF10BD30B583B03C
:1033700005000C000B4B1B886A46138000290BD1FB
:10338000022301AA6946280000F09BFD002C06D10B
:1033900001AB587803B030BDFFF7D8FFF0E7FFF777
:1033A000DBFFF5E7D848000870B584B005000E00D3
:1033B00003AB05221A70FF2302AA137001AA13702F
:1033C000002913D1012301AA03A9280000F079FDE7
:1033D00001AC0123220002A9280000F072FD23782D
:1033E000DB07F5D4002E04D104B070BDFFF7AEFFAB
:1033F000E8E7FFF7B1FFF7E730B583B005000C0051
:1034000001AB06221A70FF236A461370002909D106
:1034100001236A4601A9280000F04AFD002C04D1CE
:1034200003B030BDFFF792FFF2E7FFF795FFF7E734
:10343000F0B585B0019017001D000AAB1C78002C78
:103440001DD103AB03221A70C9B20A1203AB5A7022
:10345000997001210198FFF7A7FF012C13D0FFF706
:1034600075FF032302AA03A9019800F02AFD002C8E
:103470000ED102AE002C00D002AD002411E003AB4F
:1034800002221A70E0E701210198FFF7B5FFE6E795
:103490002E00EFE72A1901233100019800F011FDF9
:1034A0000134A742F6DCFFF757FF05B0F0BD10B5B9
:1034B00082B000240094FFF7BBFF02B010BD0000F3
:1034C00030B583B005000C000D4B998801AA11801E
:1034D0001B896A461380002C0BD102236A4601A97E
:1034E000280000F0E5FC002C06D16B46587803B0AC
:1034F00030BDFFF72BFFF0E7FFF72EFFF5E7C046E3
:10350000D848000810B50400174800F085F90121DB
:103510002000FFF72BFF0F239843C0B2802819D05B
:10352000124800F079F901212000FFF765FF3220F1
:1035300000F0ECFA01212000FFF7C2FF322000F07A
:10354000E5FA01212000FFF711FF0F239843C0B2D5
:10355000802804D1064800F05FF9012010BD05481D
:1035600000F05AF90020F9E7344A0008444A0008FC
:10357000704A0008604A000810B580214900002008
:1035800000F0B2FA10BD10B500F088F8FFF7F4FFB4
:1035900010BD30B54378032B33D018D8012B1DD084
:1035A00025D80023137036335370383393706D3B36
:1035B000D370C37F1371C378937100235371437920
:1035C000022B4FD00B68013360D0002354E0052B51
:1035D0002AD01FD3FF2B3BD1002336E040231370AA
:1035E00038335370053393707C3BD370E1E780230D
:1035F0005B4213703A3353702E3B93707533D37024
:10360000D7E7002313706C335370903B93702633CD
:10361000D370CEE780235B421370703353700A334C
:1036200093700833D370C4E700231370753353705D
:103630005C3B9370163BD370BBE70324E41A050090
:103640001B352C5DD4540133DBB2032BF5D9B0E725
:1036500080235B421370703353700A3393700833C6
:10366000D370A6E7013B5371ACE70324E41AD01DE5
:103670000C5DC4540133DBB2032BF6D9D31D0021FA
:10368000D17100225A709A70DA7030BDD31D0021BA
:10369000D17100225A709A70DA70F6E710B50221E3
:1036A000002000F021FA10BD30B585B005000C00F7
:1036B0000B4B69460B808C808A70210000F020F94A
:1036C000029010236A460021002000F0A7FA230090
:1036D0002A001021002000F0A1FA012005B030BD21
:1036E000FCA5FFFFF0B585B006000C0015001F001B
:1036F00010236A460021002000F030FA6B461A8839
:10370000134B9A4204D000233B70002005B0F0BD5B
:103710006B469B783B706B469B88A34201D0002090
:10372000F4E76B469B78AB4201D00020EEE7230024
:1037300032001021002000F011FA2100300000F0CA
:10374000DFF8029B834201D00020DFE70120DDE7A4
:10375000FCA5000070B52B4B03405C1EA341DBB2FF
:10376000294A01210B405C0013780225AB43274D09
:1037700005406E1EB541EDB20D40AD00234304245B
:10378000A343234C0440661EB441E4B20C40E40061
:103790002B430825AB431F4D05406E1EB541EDB2CE
:1037A0000D402D0123431024A343F02424010440A1
:1037B000661EB441E4B20C4064012B432025AB43A8
:1037C000D03505406E1EB541EDB229408901234335
:1037D0004024A343313C0440651EAC41E4B2E40103
:1037E0000B437F210B40010B4D1EA941557801264B
:1037F000B5432943517050801C4301231C4314706E
:10380000012070BD11110000500200202222000092
:10381000444400008888FFFF0FB400B597B0144BF4
:103820001A7809231340092B03D017B008BC04B041
:10383000184719AB1593189A502101A800F008FCFD
:103840000B4B5B885B050BD4094B5B885B060BD489
:10385000074B5B885B07E8D501A800F07BF9E4E73C
:1038600001A800F057F9EFE701A800F063F9EFE7CE
:10387000500200200FB400B597B0144B1A781123F2
:103880001340112B03D017B008BC04B0184719AB74
:103890001593189A502101A800F0DAFB0B4B5B88B6
:1038A0001B050BD4094B5B881B060BD4074B5B88AD
:1038B0001B07E8D501A800F04DF9E4E701A800F0E6
:1038C00029F9EFE701A800F035F9EFE750020020F1
:1038D00010B500F03DFA00F0FFF910BD10B5FA2068
:1038E000800100F0F7FAFDF75FF810BD10B500F0A9
:1038F00025FB00F025F8FDF7A5F8FFF7E9FF10BD5F
:1039000030B501235B420FE05208002A0AD0D90FDC
:10391000024201D0D943C90F5B000029F4D0074906
:103920004B40F1E7210028004C1EA4B2002903D02F
:10393000451C00788022E8E7180030BDB71DC1049F
:10394000F0B5D64600B584B000F09EF882460F0070
:1039500000262C4B1B78B3422ADC04B004BC9246F0
:10396000F0BD3201284B9B189B7A9B0703D4264B52
:103970009B18DB68984733012349C9180B890293C8
:10398000002303930A684B68029C039D12196B4144
:103990000A604B6032011C4B9B189B7ADB07DB0FE4
:1039A00022D119498A1811685268BA421CD80AD023
:1039B0003201154B9B181A685B68BB42EAD8D0D11C
:1039C0005245E7D8CDE75145F2D90DE032010E4C12
:1039D000A44662441489009400240194009C019D33
:1039E0000019694110605160002B09D0320106496D
:1039F0008A1810685168B94202D8E7D15045E5D914
:103A00000136A6E78C00002058020020F8B5060019
:103A100004000025F1087007001BA941C7084B07E7
:103A20003B43420780185941870F8B003B4382007C
:103A300012196B4192185B4112196B41570FD90053
:103A40003943D000001BA941FA2292000023FCF761
:103A5000E7FB321800230B490868496812184B41EC
:103A6000994209D9074901200872487A0130487201
:103A700004490A604B60F8BD9942F9D19042F1D8EF
:103A8000F6E7C0469000002010B5044B186859684E
:103A9000FA2292000023FCF7E7FB10BD9000002003
:103AA00010B506280CD88000094B1B589F46A02053
:103AB000C0050CE007480AE0074808E0074806E0B0
:103AC00030210748FCF7BEFE002000E0054810BD8D
:103AD000E448000800080050000C0050001C005092
:103AE0007C4A00080004005010B50C00FFF7D8FF16
:103AF00001222100FDF700FB10BD10B50C00FFF7FF
:103B0000CFFF00222100FDF7F7FA10BD10B5FDF739
:103B1000B5F910BD10B50400FCF7D0FD82B2034B1F
:103B200021000348FFF7BEFA10BDC046FFFF0000AA
:103B30006C01002010B50400FCF7C0FD82B2034BFD
:103B400021000348FFF7AEFA10BDC046FFFF00009A
:103B5000DC0100207047006870470000F8B50F00D6
:103B600016001D00002803D180231B019D4203DDA8
:103B700051211348FCF766FE124B9C466744002413
:103B800001E004370434AC4217DA3800FFF7E3FFF2
:103B9000020E23003255621CAA4202DA020C611C9A
:103BA0007254A21CAA4202DA020A991C7254E21C44
:103BB000AA42E6DA0333F054E3E70120F8BDC04639
:103BC000C04A00080000080830B5114B114A92693C
:103BD000D20704D5002B02D0013B9BB2F6E7002BA5
:103BE00014D00C4C62680C4D2A406260016001E008
:103BF000013B9BB2074A9269D20701D5002BF7D14E
:103C0000002B01D0012002E0002000E0002030BDA8
:103C10001027000000200240FFFEFFFFF0B5C6465F
:103C200000B50F0016001D00002803D180231B01E2
:103C30009D4203DD30212348FCF704FE224B9C46C5
:103C40006744224B5B68DB0704D5204B204ADA60CF
:103C5000204ADA60002407E0002310E0002315E08A
:103C6000002219E004370434AC4221DA2100325D2D
:103C70001206631CAB42EFDA33195B781B049A1807
:103C8000A31CAB42EADA73189B781B029B18E21C58
:103C9000AA42E5DA7118CA78904698443800FFF7CE
:103CA0005AFF4045DED041463800FFF78DFFD9E787
:103CB000064A536801210B435360012004BC90461F
:103CC000F0BDC046C04A00080000080800200240BD
:103CD000EFCDAB890504030210B5FCF7BDFD00F084
:103CE000CFF8FCF7F3FC0348FDF758F8FDF714F89C
:103CF00010BDC0466C01002000B587B00C22002129
:103D000003A800F071F903230293303B0193A02034
:103D100001A9C005FDF72AF901235B42019301A91E
:103D20000848FDF723F9084AD36A02218B43D3627E
:103D300031235B42019301A90448FDF717F907B04D
:103D400000BDC046000400500010024000080050B2
:103D500010B582B0FA20400000F046F8154A916B89
:103D600080235B050B439363FDF72CFAFDF720FAE4
:103D7000FFF7C2FF104B1B68DA69D203FAD4DA6985
:103D80005202FCD58021890300910B4C019A20003E
:103D9000FFF780FA226891688023DB030B4393606E
:103DA0002000FFF7BBFA01210120FDF7E3F902B083
:103DB00010BDC046001002406C01002010B586B056
:103DC00001A900240C704C708C704C60CC600C61AC
:103DD00000220348FEF718F9024B1C7006B010BD14
:103DE000B80000200400002010B50400FFF7E6FF33
:103DF000E3001B19180218180019FA218900FCF7B2
:103E000083F9010000220248FEF756FA10BDC046B1
:103E1000B800002030B587B001AC164D002221005B
:103E20002800FEF7F9F9002269462800FEF720FA7B
:103E3000657811486843A3785A01D21A9200D218C3
:103E4000D5004519A1686368CB1A5A01D21A9200AD
:103E5000D218D000FCF758F94019013043011B1A61
:103E60009B001B18D800FFF7D1FD044B01221A70EC
:103E700007B030BDB800002060EA00000400002058
:103E800010B50348FEF7A2FAFFF7C4FF10BDC04605
:103E9000B800002010B5054B1B78002B00D110BDD9
:103EA000FA208000FFF7B2FDF9E7C04604000020C9
:103EB00010B582B09BB264240094FEF7A7FB02B059
:103EC00010BD10B582B09BB264240094FEF79EFB37
:103ED00002B010BD70B5050002000A3A114B9A42BB
:103EE00016D8114C114B236006236360104BE3601E
:103EF000A80040190301C0180301C0180D49FCF7C0
:103F000003F9A0602000FDF7FDF8002805D170BD81
:103F100031210948FCF796FCE3E744210648FCF709
:103F200091FCF4E7566D0000A8000020003000402E
:103F3000FF0F000010270000044B000810B50248D6
:103F4000FDF710F910BDC046A80000200D488546B9
:103F5000002103E00C4B5B58435004310B480C4BE1
:103F600042189A42F6D30B4A02E00023136004324F
:103F7000094B9A42F9D3FCF759FE00F011F8FCF70F
:103F8000C5FCFEE700200020EC4B000800000020EC
:103F90006C000020700000206C020020FEE7000092
:103FA00070B500260C4D0D4C641BA410A64209D11F
:103FB000002600F04FFC0A4D0A4C641BA410A642D8
:103FC00005D170BDB300EB5898470136EEE7B3005A
:103FD000EB5898470136F2E7E44B0008E44B000841
:103FE000E44B0008E84B000803001218934200D18C
:103FF000704719700133F9E730B514009BB0050024
:104000001A00002C05DA8B230360012040421BB00C
:1040100030BD822368469B00838100230091049178
:104020009C4200D0631E02930593012369465B42C4
:10403000CB8128001E9B00F021F9431C01DA8B2361
:104040002B60002CE3D00023009A1370DFE7000000
:1040500007B5009313000A00010002480068FFF74B
:10406000CBFF0EBD0800002070B50500002910D060
:104070000C1F2368002B00DAE418280000F0ABFBCB
:104080001D4A1368002B05D163601460280000F0FE
:10409000A3FB70BDA34209D9216860188342F3D104
:1040A00018685B6841182160EEE713005A68002A1F
:1040B00001D0A242F9D919685818A0420BD1206842
:1040C0000918581819608242E0D1106852684118E6
:1040D00019605A60DAE7A04202D90C232B60D5E7B9
:1040E00021686018824203D110685268411821602B
:1040F00062605C60CAE7C0469C000020032370B584
:10410000CD1C9D43083506000C2D1ED20C25A9425E
:104110001DD8300000F05FFB254A146821000029FB
:1041200019D1244C2368002B03D1300000F01AFB76
:1041300020602900300000F015FB431C2BD10C231C
:104140003000336000F048FB03E0002DDFDA0C2381
:104150003360002070BD0B685B1B19D40B2B03D997
:104160000B60CC18256003E04B688C420DD11360C6
:10417000300000F031FB200007220B30231D90435C
:10418000C31AE7D05A42E250E4E763600C00EFE75D
:104190000C004968C3E70323C41C9C43A042E1D040
:1041A000211A300000F0DEFA431CDBD1C7E7C0461D
:1041B0009C000020A0000020F0B58E6885B00700AC
:1041C0000C00039201939E423CD890238A89DB0025
:1041D0001A4234D00325096923685B1A0293636984
:1041E00002985D43EB0F5D19019B6D1001331B18A5
:1041F000AB4200D91D00530532D529003800FFF726
:104200007DFF061E09D10C233B6040230120A289BB
:1042100040421343A38105B0F0BD029A216900F02A
:10422000BEFAA389144A1A4080231343A381029B38
:104230002661F61826606561019EED1AA560019B56
:104240009E4200D9019E32000399206800F0B0FA26
:10425000A36800209B1BA36023689E192660DAE7F1
:104260002A00380000F0B9FA061EE0D121693800B2
:10427000FFF7FAFEC7E7C0467FFBFFFFF0B59FB030
:10428000029005938B890F0016001B0611D50B6950
:10429000002B0ED14021FFF731FF38603861002834
:1042A00005D10C23029A013813601FB0F0BD4023E2
:1042B0007B61002306AC6361203363761033A37601
:1042C00035002B78002B01D0252B46D1AB1B049356
:1042D0000CD0320039000298FFF76EFF431C00D16A
:1042E000AEE06269049B9446634463612B78002BC3
:1042F00000D1A5E0012200235242626002A954329B
:1043000052186E1C2360E360A3601370A3653178BC
:104310000522544800F038FA751C00281FD1226885
:10432000D30604D5532302A95B1820211970130763
:1043300004D5532302A95B182B21197033782A2B3B
:1043400016D0350000210A20E3682A786E1C303A26
:10435000092A4ED9002918D010E00135B1E7414BA8
:104360002268C01A01238340134323602E00CEE746
:10437000059B191D1B680591002B01DB099304E0C7
:104380005B42E3600223134323602B782E2B0AD178
:104390006B782A2B35D1059B02351A1D1B680592B7
:1043A000002B2BDB0793304E29780322300000F0DE
:1043B000EBF9002806D04023801B8340226801359A
:1043C000134323602978062228486E1C217600F0CA
:1043D000DBF900283CD0264B002B25D10722059B7A
:1043E00007339343083305936369039A9B1863610A
:1043F00066E7434301219B183500A6E701235B4292
:10440000D0E700230A201A000135636029786E1C6A
:104410003039092903D9002BC5D00792C3E742439D
:10442000012352183500F1E705AB00933A00114B18
:104430002100029800E000BF0390039B0133D3D119
:10444000BB890B985B0600D42FE7012040422CE784
:1044500005AB00933A00074B2100029800F07AF870
:10446000EAE7C046484B00084E4B0008524B000894
:1044700000000000B9410008F7B5150001938A68F3
:104480000B6900900C00934200DA130022002B60AD
:1044900043321278002A01D001332B6023689B0637
:1044A00002D52B6802332B60062723681F4027D0D4
:1044B000230043331B785A1E93412268920630D45E
:1044C0002200019943320098089EB047431C25D032
:1044D000062320682A68E16803400025042B03D1E5
:1044E0008D1AEB43DB171D40A3682269934201DD5F
:1044F0009B1AED180027BD4220D1002010E00137A3
:10450000E3682A689B1ABB42D2DD220001231932DC
:1045100001990098089EB047431CF0D10120404209
:10452000FEBD3020E1184331087021005A1C45318E
:104530000978A218433202331170C1E72200012327
:104540001A3201990098089EB047431CE6D0013703
:10455000D1E70000F0B589B004920A004332059318
:10456000039002920A7E0C000E9B6E2A00D186E018
:104570001FD8632A33D008D8002A00D18CE0582AEB
:104580004DD0250042352A7030E0642A01D0692AD6
:10459000F7D1196825680A1D280629D508681A6008
:1045A000002803DA2D23029A404213706B4E0A272B
:1045B0004FE0732A74D008D86F2A1FD0702AE0D138
:1045C000202209680A43226003E0752A16D0782A5F
:1045D000D7D12200782145321170614E22E02500AA
:1045E0001A684235111D196013682B70012365E0AC
:1045F00008681A606906D3D500B2D1E71968256842
:10460000081D186008682E0605D5544E08276F2A25
:104610001BD00A2719E06D06F7D580B2F5E74531C2
:104620004E4E0A7018682268011D00681960150650
:1046300021D5D30702D520231A4322601027002852
:1046400003D1202322689A432260230000224333AF
:104650001A706368A360002B58DB04222168914321
:104660002160002854D1029D002B5AD025003378B8
:1046700042352B7055E05506DBD580B2D9E71A6874
:104680000D68101D4969186013682E0601D5196060
:1046900002E06D06FBD519800023029D23614FE0E7
:1046A0001A68111D1960156800216268280000F061
:1046B0006BF8002801D0401B606063682361002311
:1046C000029A13703CE023692A0004990398059D1F
:1046D000A847431C3ED023689B0715D4079BE0687E
:1046E000984239DA180037E0220001231932049980
:1046F0000398059EB047431C2CD00135E368079A08
:104700009B1AAB42F0DCE9E70025F7E70028ADD0C3
:10471000029D3900FBF77EFD735C013D2B70002884
:10472000F7D1082F09D12368DB0706D56368226912
:10473000934202DC3023013D2B70029B5B1B236103
:10474000059B07AA00932100049B0398FFF794FEA2
:10475000431CB8D10120404209B0F0BD594B0008BC
:104760006A4B0008002370B5064C05000800236062
:1047700000F062F8431C03D12368002B00D02B60AB
:1047800070BDC04668020020C9B28218904201D1B3
:104790000020704703788B42FBD00130F6E70023FE
:1047A00010B59A4200D110BDCC5CC4540133F8E777
:1047B00010B5884202D98B18984203D3002307E032
:1047C0008B5C8354013AFBD210BDCC5CC4540133E2
:1047D0009A42FAD1F8E770477047F8B507000D0024
:1047E0001600002905D11100FFF788FC0400200005
:1047F000F8BD002A03D1FFF737FC3400F7E700F0DB
:1048000012F82C00B042F2D231003800FFF776FCEB
:10481000041EECD029003200FFF7C1FF2900380048
:10482000FFF722FCE3E70B1F1B68181F002B01DAC0
:104830000B58C01870470000044A1368002B00D1C1
:10484000034B1818106018007047C046A4000020E1
:1048500070020020F8B5C046F8BC08BC9E46704700
:0C486000F8B5C046F8BC08BC9E46704786
:10486C00030406080C1018203000000000000000A3
:10487C000000000001020304060708090000000004
:10488C00010203045E2E00087A2E0008962E000802
:10489C00182F0008CE2E0008182F0008182F00081B
:1048AC00182F0008EA2E0008B62D0008DC2D000891
:1048BC00F42D0008582E0008282E0008582E000849
:1048CC00582E0008582E0008402E000805FF000046
:1048DC0001800000FFFF0000AE3A0008CC3A00084F
:1048EC00B43A0008B83A0008C03A0008C03A0008C8
:1048FC00BC3A00082E2E2F436F72652F5372632F14
:10490C00697764672E6300004572726F72203A20DB
:10491C00257320282564290D0A0000002E2E2F4314
:10492C006F72652F5372632F6D61696E2E63000079
:10493C00496E206C6F6164436F6E666967200D0A67
:10494C0000000000466C617368696E670D0A000018
:10495C004C6F61642076657273696F6E2025640DEF
:10496C000A0000007632203A202530580D0A00004B
:10497C00496E207461736B0D0A00000074696D65DB
:10498C002069732025640D0A00000000426F6F74CB
:10499C00696E67200D0A000062616E643A2025641E
:1049AC000D0A00006F66667365743A2030782558DE
:1049BC000D0A000072616E67653A2025640D0A00CD
:1049CC007463786F3A2025640D0A00006672657175
:1049DC003A2025640D0A00002E2E2F436F72652F8E
:1049EC005372632F7274632E630000002E2E2F43BC
:1049FC006F72652F5372632F7370692E6300000002
:104A0C002E2E2F436F72652F5372632F74696D2E88
:104A1C00630000002E2E2F436F72652F5372632F8D
:104A2C0075736172742E63004D39353634302049FC
:104A3C006E69740D0A000000203E20456E61626CA8
:104A4C006520577269746520262053525744200DF7
:104A5C000A000000203E204E6F7420466F756E6475
:104A6C00200D0A00203E20466F756E64200D0A0052
:104A7C00433A2F55736572732F7061756C2F446FA9
:104A8C0063756D656E74732F53544D33322F4974A7
:104A9C0053646B2F5372632F73746D33326C5F736B
:104AAC00646B2F6770696F5F777261707065722EBF
:104ABC0063000000433A2F55736572732F70617554
:104ACC006C2F446F63756D656E74732F53544D3337
:104ADC00322F497453646B2F5372632F73746D337D
:104AEC00326C5F73646B2F656570726F6D2F6565CB
:104AFC0070726F6D2E630000433A2F55736572739D
:104B0C002F7061756C2F446F63756D656E74732FA8
:104B1C0053544D33322F497453646B2F5372632F9C
:104B2C0073746D33326C5F73646B2F7764672F779C
:104B3C0061746368646F672E63000000232D302B53
:104B4C002000686C4C006566674546470030313282
:104B5C0033343536373839414243444546003031D9
:104B6C003233343536373839616263646566000038
:104B7C000000000000000000000000000000000029
:104B8C000000000000000000000000000000000019
:104B9C000000000000000000000000000000000009
:104BAC0000000000000000000000000000000000F9
:104BBC0000000000000000000000000000000000E9
:104BCC0000000000000000000000000000000000D9
:084BDC0020B7FF7F010000007B
:044BE400E9000008DC
:044BE800C100000800
:104BEC0080841E00010000000C000020000000006A
:104BFC009C4B0008BC4B00087C4B000800000000DC
:104C0C000000000000000000000000000000000098
:104C1C000000000000000000000000000000000088
:104C2C000000000000000000000000000000000078
:104C3C000000000000000000000000000000000068
:0C4C4C000000000000000000000000005C
:0400000508003F4D63
:00000001FF
