:020000040800F2
:1000000000200020BD8D00087545000877450008D8
:1000100000000000000000000000000000000000E0
:10002000000000000000000000000000794500080A
:1000300000000000000000007B4500087D4500082E
:100040000D8E00080D8E0008854500080D8E0008F5
:100050000D8E0008954500080D8E00089F4500088C
:100060000D8E00080D8E00080D8E00080D8E000804
:100070000D8E00080D8E0008000000000D8E000897
:10008000000000000D8E00080000000000000000CD
:100090000D8E0008000000000D8E00080D8E000877
:1000A0000D8E0008AD4500080D8E00080D8E00086D
:1000B0000D8E00080D8E00080D8E00080D8E0008B4
:1000C00010B5064C2378002B07D1054B002B02D02E
:1000D000044800E000BF0123237010BDA8010020E8
:1000E00000000000F0960008044B10B5002B03D070
:1000F0000349044800E000BF10BDC04600000000F6
:10010000AC010020F0960008FDB598B080482E2282
:10011000825E002A28D07F4A914225D003AB0A781C
:100120001A704A785A7002269C228258FF24E034C2
:10013000121902926A46C48D1480009C24B218A839
:100140000578AE4217D2885D9A190192F20707D559
:100150000219029F3F78BA4202DA009A12B280185E
:10016000019A1070761CECE7199A18A8007807F02D
:100170004BFA1BB0F0BD1AA80378199A03A918A866
:10018000007807F041FAF4E780B5694680220A70EA
:10019000487000230022022007F036FA01BD70B536
:1001A00086B003000800002469460C704B7003E021
:1001B000155D0E19B570641C8442F9D3002300222A
:1001C000801CC0B207F020FA06B070BD70B58CB0CC
:1001D0000E0015006B46012119705870340004D0D0
:1001E000FF222100981C08F01BFE002306AA694686
:1001F000B61CF0B207F008FA002006A903E00A18BE
:1002000092782A54401CA042F9D30CB070BD1CB5A2
:100210000420694608706A4601213020FFF7BFFFBD
:100220000720694608706A4601216220FFF7B7FF80
:100230006A4601216320FFF7C9FF68460078FD2167
:100240000140684601706A4601216320FFF7A7FF5D
:10025000D720694608706A4601216520FFF79FFF95
:100260009C20694608706A4601217620FFF797FFB7
:100270002820694608706A4601217720FFF78FFF22
:10028000C820694608706A4601216420FFF787FF8D
:100290001F4C2420205C00281BD02420205C082830
:1002A00017DA2420205C0001022101436846017016
:1002B0006A4601217920FFF772FF2420205C05287F
:1002C00007DB8820694608706A4601216420FFF731
:1002D00066FF00AA521C0121F120FFF777FF684654
:1002E0004078C12807D12E20694608706A4601214E
:1002F0006C20FFF754FF3020694608706A460121E0
:100300003F20FFF74CFF01203121605413BD000056
:1003100024000020B0070008F8B588B0CC49CE69A9
:10032000CC498E4200D37608012800D08EE06120AF
:10033000694608740020FA2149003200002303F0C6
:100340009BFB84B20021C44A00231219300003F041
:10035000B3FB0022C14B12184B41029203930020C1
:10036000FA214900009001913000002180225202C0
:100370000023121903F0A0FB009A019B121A8B4173
:1003800002980399994203D801D3904200D2641C89
:100390000594F42000060121AD4EF269AD4B9A425E
:1003A0002AD30025F269002303F066FB0400F069FC
:1003B0000290F0690021E2B20023521C03F07CFBA2
:1003C000C02212050123DB4312184B410092019316
:1003D000F4263606012702980021E2B2002303F03A
:1003E0006BFB361A8F4100980199B9422FD802D37E
:1003F000B04200D3C8E0C6E00125F269002303F053
:100400003BFB0400F0690790F6690021E0B2FF228F
:10041000921C00231218300003F04EFBC02212057C
:100420000123DB4312184B4102920393F420000690
:1004300000900195079E0021E0B22A0200231218C5
:10044000300003F039FB009A012393E0022800D02A
:100450009AE06320694608740020D24932000023E4
:1004600003F00AFB84B200217B4A002312193000FA
:1004700003F022FB0022CC4B12184B410292039353
:100480000020C849009001913000002180225202D2
:100490000023121903F010FB009A019B121A8B41E2
:1004A00002980399994203D801D3904200D2641C68
:1004B0000594674EF069674988422DD30225DC20F8
:1004C00000060521F269002303F0D6FA0400F06962
:1004D0000790F6690021E0B2FF22921C0023121857
:1004E000300003F0E9FA902292050523DB4312184D
:1004F0004B4102920393DC200006052100900191FC
:10050000079E0021E0B2EA0100231218300003F038
:10051000D3FA009A05232DE00325EE2000060221E0
:10052000F269002303F0A8FA0400F0690790F66965
:100530000021E0B2FF22921C00231218300003F0C9
:10054000BBFA902252050223DB4312184B41029260
:100550000393EE200006022100900191079E0021E6
:10056000E0B28022520000231218300003F0A4FAF7
:10057000009A0223121A8B4102980399994203D8D8
:1005800001D3904200D2641C06AE05980004000E10
:100590003070059870706846007CB07006AA032120
:1005A0000E20FFF7FCFD802028433070747006AAEF
:1005B00002211120FFF7F3FD254908009C30262277
:1005C0008A5C002A01D0496C00E0096C01600021BE
:1005D0001F4A482503685B5C54186355491C52291F
:1005E000F8DB09B0F0BD01880A06520F4A4012023A
:1005F000C905090E1143C905C90D0180704711B520
:1006000081B0082401A8FFF7EEFF641EFAD1684606
:10061000808816BD1CB50E499C228C5800280ED12E
:10062000EE204000201802787A23CB5C934200D160
:1006300042787A200A5401230022483103E0012342
:100640000022210052315220FFF75EFD13BD000051
:100650002400002081C3C901010001000CFEFFFF3E
:10066000F8B5524C9C2020586189072708260025A0
:100670002279921E062A6BD801A39B5C9F4400BF7F
:10068000084A2C7C90A2B40001230022CD2149000D
:1006900041184220FFF738FDA07C012802D1668175
:1006A000042033E02581678103202FE0228ACA409D
:1006B000D007C00FFFF7AEFF608900281BD166810D
:1006C000208AFFF79CFF2082F1BDE0682289825CCE
:1006D000CA40D007C00FFFF79DFF608900280AD1EC
:1006E00067812089401C2081E18880B288422FD117
:1006F000258105200AE0401E6081F1BD0123002212
:100700000100A4315220FFF7FFFC06202071F1BD4B
:10071000012300220100F6315220FFF7F5FC27717A
:10072000F1BD0123002200BF21A14220FFF7ECFC14
:100730002671F1BD00F0DBFC7220FFF725FD0122E0
:100740000021E07806F0A0FF2571012028216054E7
:10075000F1BD00001CB57220FFF716FD002300223A
:1007600013A11220FFF7D0FC104C002300229C2084
:100770002058A421490041185220FFF7C5FC32201F
:10078000694608706A460121E078FFF708FD0122FA
:100790000121E07806F078FF01202C21605402202E
:1007A000207113BDEE02000012FDFFFF24000020A7
:1007B00000FF00000000000000000000000000003A
:1007C0000000000000000000000000000000000029
:1007D0000000000000000000000000000000000019
:1007E0000000000000000000000000000000000009
:1007F0000000000000000000F8B58AB0D04FF86992
:10080000059008A87AA10CC90CC00598CD4988426A
:1008100001D340080590059C002096218900220004
:10082000002303F029F986B20021CF4A0023921950
:10083000200003F041F90022CC4B12184B410292E8
:1008400003930020962189000090019100218022CD
:10085000520200239219200003F02EF9009A019B06
:10086000121A8B4102980399994203D801D39042FE
:1008700000D2761C0696C8200006F96902F062FFD5
:10088000C4B2FD69F86900210023621C03F014F969
:10089000CDA20CCA12184B4102920393C820000645
:1008A00000210090019128002200002303F004F9A8
:1008B000009A0023121A8B4102980399994205D895
:1008C00001D3904202D26846641C00E0684604707E
:1008D000BF4C00AEB61C20000121FA69002303F0D2
:1008E000CBF86438307020000121059A002303F012
:1008F000C3F86438707000AA921C02210920FFF727
:100900004EFC07AC06980004000E2070069860703C
:100910002120A07007AA03210E20FFF740FC00252C
:10092000257068460078607007AA02211120FFF741
:1009300036FC88206946087404AA01211320FFF7B9
:100940002EFC08AA05212E20FFF729FC402608AC22
:10095000267008AA01212B20FFF721FC27202070F8
:10096000B220607008AA02213520FFF718FC26701B
:10097000657008AA02213920FFF711FC684605744A
:1009800004AA01211F20FFF70AFC0720694608740A
:1009900004AA01211820FFF702FC702069460874A0
:1009A00004AA01212120FFF7FAFB202069460874E0
:1009B00004AA0121FFF7F3FB6846057404AA01218C
:1009C0001420FFF7ECFB87206946087404AA012174
:1009D0007620FFF7E4FB62206946087404AA01212F
:1009E0007720FFF7DCFB31203D540BB0F0BD000059
:1009F000000000000F000000FEB50600504C06D1BC
:100A00003120205C002802D000202071FEBDA069AA
:100A1000002801D1E069A061012006F0E1FD00207D
:100A200006F0DEFD2520205C002808D0B0206946B5
:100A3000487000AA521C01216D20FFF7B0FB200076
:100A400040302621615C002901D0416800E0216C22
:100A5000C16500220021E07806F016FE206AA56933
:100A6000902189004843B64902F0F6FE281AE06159
:100A7000B44FE069B84208D255206946487000AAD0
:100A8000521C01216C20FFF78AFB01A82EA10A68E5
:100A900002602078FF2803D001AA0121FFF77FFB25
:100AA000607801ADFF2803D06A1C0121FFF777FBB6
:100AB000A078FF2803D0AA1C0121FFF770FB3000AB
:100AC00034D0022E02D034D3032E34D1E569BD4296
:100AD00000D96D0800AFBF1C3D480121E269002329
:100AE00002F0CAFF64383870394801212A00002317
:100AF00002F0C2FF6438787000AA921C022109201B
:100B0000FFF74DFB812069460870032E01D151206B
:100B100008706A4601211320FFF741FB2020694637
:100B200008706A4601212E20FFF739FBFFF76FFBA3
:100B300001E0FFF761FE00F0EDFA0020FEBD0000CD
:100B40002400002081C3C90192522A0080B500F020
:100B5000CEFA012006F044FDBC4800212822815431
:100B600031228154002002BD01000100A8FDFFFFD9
:100B7000F8B50700080000240021160000E0491C19
:100B8000CAB2B242FBD3010004D0B04D2C21695C43
:100B9000002901D03120F2BDFFF7BEFBAC74EF603D
:100BA000EE80FFF7D7FD00F099FA2E00283634705A
:100BB00001E006F0BBFD2820285C0028F9D0347045
:100BC0002C202C540020F2BD00000038FFFFFFFF56
:100BD000000074B77CB59D4C2C21615C002901D0CC
:100BE000312076BD0600E07831000125012E01D0CC
:100BF000022E0CD10122012106F046FDA574944875
:100C000020823000FFF788FBFFF7A4FD21E0002ED3
:100C100021D1002206F038FD6A4601211020FFF79D
:100C2000D5FA684600780007000F70210143684636
:100C300001706A4601211020FFF7B1FAE08D401CD7
:100C4000694608706A4601215A20FFF7A8FA2C204D
:100C5000255400F043FA002076BD80B500F047FA35
:100C60007A4800212C228154817C002904D0002262
:100C70000021C07806F008FD002002BDF1B584B067
:100C8000C70A4605714D30003900EA69002302F0B9
:100C9000F3FE0400E8690390E869002100900191E7
:100CA00000230020621C4341009802F005FF801BD6
:100CB000B94100900191039800212200002302F025
:100CC000FBFE361A8F4100980199B94203D801D32F
:100CD000B04200D2641C02260127CE49049A920039
:100CE000D04B9A42EA6903D38A4204D2012603E038
:100CF0008A4201D30326002702AA01216520FFF7BB
:100D000065FA02AD2878FB210140B800084328703D
:100D100002AA01216520FFF742FA2001000F7101AC
:100D200001432970200C6870200AA870EC7002AA98
:100D300004210520FFF733FA002005B0F0BD0000C4
:100D40001027000080C3C901F7B584B000266846AB
:100D5000467001A8066001270290C7702020029902
:100D6000887001AA04215020FFF719FA0225029980
:100D70000D70364C01AA0121E078FFF710FA00222D
:100D80000121E07806F080FC7120FFF7FDF901AA4F
:100D90000421FA20FFF71AFA200028300390067089
:100DA0002C20255400F09DF96846457804E002980F
:100DB0008078800600D501252920205C002801D0FC
:100DC000280034D006F0B2FC2820205C0028F3D0A4
:100DD0000398067001AA0421FA20FFF7F7F9029898
:100DE000C078C007E3D5049D6A4601219020FFF733
:100DF000EDF92A0068460178FF20FFF7E7F92200A5
:100E000014320121A220FFF7E1F9207D40B2302108
:100E10006156401892380599088000220021E07838
:100E200006F032FC2C202654069807700AE000F0E9
:100E30005EF900220021E07806F026FC2C202654E2
:100E400006980670002007B0F0BD000024000020C6
:100E5000FF010000F7B56A4600231360964DEE6966
:100E60006C4A964200D376080F00694608716C46BA
:100E70004020A070102020706A4604215020FFF707
:100E80008EF9022020706A460121E878FFF787F981
:100E900000220121E87806F0F7FB302028563818A8
:100EA0006E3820706A4601211820FFF778F98020FB
:100EB00020706A4601213920FFF771F968460079F0
:100EC00000213200002302F0F7FDFA2292000023F5
:100ED00002F0D2FD794A002302F0CEFD06000F0099
:100EE0000020761C474130003900FF22002302F029
:100EF000C3FD60706078012801DD401E00E0012024
:100F000069464870300039006A465278521CD3173F
:100F100002F0B2FD694608706A4602214620FFF7DA
:100F20003EF904202C216854012602990E702800F5
:100F300028300190002410277120FFF725F96A4618
:100F40000421FA20FFF742F90198047000F0C9F873
:100F50002820285C00282CD12A20285C002828D1B1
:100F600006F0E4FBF4E70078384206D12A20285C3A
:100F70000028E1D02A202C540026029806700298FE
:100F80000078012807D1684604606A460421502091
:100F9000FFF705F904E0012006F022FB31202C5474
:100FA00000220021E87806F06FFB2C202C54002052
:100FB000FEBD2820285C0028D8D0019804706A461D
:100FC0000421FA20FFF702F9684681784906CAD55C
:100FD00000F08DF8CAE7000008220A704BA10160FA
:100FE0000020704736490870704701203549087065
:100FF000704780B530482C21415C012903D0012184
:101000002822815401BDFFF72BFB01BD2E4908703A
:101010000020704781C3C9012B4909780170002065
:101020007047000000A493D6032801DD012070471B
:101030002149C87000207047042803DBFF2801D035
:10104000012070471C49087000207047042803DB0A
:10105000FF2801D0012070471749487000207047D1
:10106000042803DBFF2801D0012070471249887053
:10107000002070471049C885002070470E498861DC
:10108000002070470C490862002070470F49087023
:10109000002070470E490870002070470D48006816
:1010A000EF214900405C70470B49087000207047F1
:1010B0000148807C7047000024000020BA04000032
:1010C0004D0000204E000020540000204900002068
:1010D0004A000020C00000204800002080B56020A9
:1010E00001E080B56120FFF74FF8002002BD80B518
:1010F0006720F8E780B56A460121A220FFF766F86D
:1011000068460078923800B202BD000076322E3474
:101110002E352E3070470000F0B583B00400954E98
:101120003078002801D01120B2E0002C01D113202A
:10113000AEE06D463B20E871684606F0C5F9010057
:1011400001D010219EE0E8793B2801D012209FE0D9
:10115000311D742006F0F4F87268002A01D00100F5
:1011600001D010218EE01100573110006C3001F0D9
:10117000F1F90700706803D006F0FCF8380087E04A
:10118000697809022A7811438184E9780902AA78EA
:1011900011430905090D54228152A9795A2281541B
:1011A000607B02281BD17268032090609E49D16049
:1011B0000021116123699362237E302553557268A3
:1011C00013002C336569994FBD4203D1FA214900C0
:1011D000196001E0196002203121505410E001280B
:1011E0000ED17268A44890600021D1601161012085
:1011F0003221505468790002297908437168888641
:101200007068216801606168416002005632617B4C
:10121000D17101006031A3680B600023538013700B
:10122000227B012A01D1642203E0022A02D1962204
:1012300092008A80227B0A74A2689D4B9A4208D150
:101240003C20C8809B480881607B04281DD1022077
:101250001CE0994B9A4204D10820C880FA20C000B3
:10126000F1E7964B9A4203D13C20C8806E48EAE7EA
:10127000934B9A4203D13C20C8809248E3E706F0A2
:1012800079F8142100F063FA02E0012030700020A8
:1012900003B0F0BD70B500250024364E307800282C
:1012A00001D1212070BD706806F064F8010000D003
:1012B00020243570210000F04AFA70BD30B583B0AB
:1012C000069C012C01D1012500E00025002801D158
:1012D000332013E00D2901DB30200FE0002A03D179
:1012E000012C01D1312009E00295019300920B00FD
:1012F000020001211F48406800F018FB03B030BD18
:1013000010B584B002240443012B06D101206B46A2
:101310001C73002904D134200CE000206B461C73A0
:10132000029001920091002303AA00211148406815
:1013300000F0FCFA04B010BD00B583B0012801DD57
:10134000352015E0002802D10321072303E00128FE
:1013500001D10421052300200290022001900020E9
:101360000090DBB20022C9B20248406800F0DEFA09
:1013700003B000BD2803002080B5002A03D0022A54
:1013800012D009D313E000BFB3A20260002901D03C
:101390000B200870002002BD06F0DCF80100F9D037
:1013A0005C2100F0D4F902BDFFF716FEF6E75D21DF
:1013B0000020F6E738B50C00A54D2978012930D179
:1013C000696802688A604268CA6080680861C0050E
:1013D00009D5086E394A904205D108006030344A78
:1013E0000260344A02815D20085C01280AD10800AD
:1013F00000F043F96968C886002801D1412032BD58
:1014000032200C5468685D21415C022907D1816853
:10141000002902D0C068062801D2402032BD022037
:101420002870002032BD000088130000E093040003
:10143000F8B507000C00864E3078002801D05820FF
:10144000F2BDFFF7D9FA050001D057210DE03800B1
:10145000FFF714FC050004D12000FFF7BBFB0500DB
:1014600006D0FFF773FB5721280000F070F9F2BD9A
:10147000032030700020F2BDFF01000038B5744C2D
:101480002078032801D05A2032BDFFF7E6FB002563
:10149000010001D0257004E0FFF758FB0100257022
:1014A00003D0592100F053F932BD002032BD0000B5
:1014B00000EE020008520000D4300000A08C0000B2
:1014C00000770100A8610000F0B583B00400002996
:1014D00001D1532041E00D2A01DB52203DE05C4D5B
:1014E0002878022801D0512037E00320287068684E
:1014F0006C26865D982E01D050202EE006006C36BA
:101500007778BA2FF8D1B778DC2FF5D1F678FE2EA0
:10151000F2D101930023009313000A00012100F08F
:10152000BDFA010019D1686800F0E0F9010003D0AC
:10153000542100F00CF910E0002C04D1002168685F
:1015400000F0C2FF040022000021686800F02AFDBC
:10155000010002D102202870002003B0F0BDF8B5D0
:101560000D0017001E003A4C2178022901D05620A8
:10157000F2BD0421217061686C228A5C982A01D036
:101580005520F2BD0A006C325378BA2BF8D193780B
:10159000DC2BF5D1D278FE2AF2D1002802D1080046
:1015A00000F0D6FF012302003100280000F0BCFE4D
:1015B000010012D13A002900606800F0D1FE9B289A
:1015C00001D102212170010007D160686A21405ACF
:1015D00006990880022020700020F2BD00210170D1
:1015E0001B490A78002A06D049685D228A5C022AD3
:1015F00001D1096901700020704780B5694600F08B
:10160000A9FF02BD80B505F0C9FF010003D05B2131
:1016100000F09DF802BD002002BD0D490A78022AA3
:1016200001D05E207047012800D000204968562272
:101630008854002070470749884201DBB120704779
:10164000401C034949685822885200207047000016
:1016500028030020FF0F000056322E352E305F4643
:10166000444C00000100C8780202887802434878A0
:101670000002097808435040704770B40100002010
:1016800008310323012400250E68EE40264000D0D7
:10169000401C6D1C202DF7DB091D5B1EF3D14100A2
:1016A00008184004000C70BC7047F8B5070000240F
:1016B000481E062102F0D0F8461CF6B23B00083363
:1016C0000021032200201D00B0421BD000236F46E2
:1016D00079703C706C466478B0420DD02F68DF4062
:1016E000FF0705D5401CC0B2864201D16F463C7051
:1016F0005B1C641C202BEFDB6B461C7820312D1DFE
:10170000521EE1D12000F2BDF0B50C00050060359D
:10171000AE88006E310002F015F80700288931000C
:1017200002F09AF8381AE9886143401A80B2F0BD95
:1017300030B502000C0015006435A8886421515AA8
:1017400002F08AF869884C43001980B230BD020269
:10175000C8B210437047F0B583B004000D00160006
:101760005D20205C042801D002284ED1A08C0028E6
:1017700003D080210901884206DB20006C30FFF78E
:1017800071FF4005400DA08427006037012E1CD159
:1017900001212000FFF7B8FF05003889B98802F061
:1017A0005BF8F988411801232A0089B2A08C00F067
:1017B000DBFEA0842083A08CF98840186083A08C75
:1017C000F988401AA08303B0F0BD6D1C0195002577
:1017D0003889B98802F040F8060001230093206E92
:1017E000B98801F0AFFF821B012392B2B1B2A08C85
:1017F00000F0BAFEA084210018316A0088526D1CE6
:10180000EDB201988542DEDAE2E7A08E002803D02F
:1018100080210901884206DB20006C30FFF722FF9F
:101820004005400DA086A08C002801D0802806DB52
:1018300020006C30FFF716FF4006400EA084012EFA
:101840001DD10123E28E521D92B20821A08E00F01C
:101850008BFEA086002326220421A08C00F084FEAB
:10186000A084A08E2087A08E401C6087A08E401E82
:10187000A087A08C2083A08C6083A08CA2E76D1C25
:10188000019500250123E28E921D92B20721A08EC0
:1018900000F06AFEA086002326220421A08C00F01E
:1018A00063FEA0846800A18E22181187A18C2200FB
:1018B000183211526D1CEDB201988542E2DB82E7CD
:1018C000026849004118098B6423C35A59435118CF
:1018D000036E5B08C91A914201D3012101E0002186
:1018E000C943826AC06A41435018704700B583B04B
:1018F0006946828C0A70828C120A4A700200543245
:10190000537A012B04D1838E0B71838E1B0A4B718A
:101910005423C35A8B705423C05A000AC87090795C
:101920008871684605F0E2FD03B000BDF2B584B0F1
:1019300004000026002700250CA800780390012849
:1019400000D10125C5480078022801D06020A3E01D
:101950000320C24908700B98002802D169460E7214
:1019600002E002206946087201956846007A0090FC
:101970006846017C200000F091F8010000D08BE067
:101980002000FFF7B3FF002802D0010261206EE0C3
:1019900020005B308078022804D1E7682069FF21AD
:1019A00088432061BBB26846027A0CA80178200007
:1019B00000F058FB010001D07E280DE0002D3FD043
:1019C0000420A64908700CA802780A99200000F0AB
:1019D00086FC010005D09B285ED102219F4A117030
:1019E0005AE0039801282BD103209C49087002205B
:1019F00005F0E6FC002802D00102642037E00190E7
:101A00000090082300220221200000F047F8010086
:101A100042D12000FFF76AFF002802D001026220B5
:101A200025E020005B308078022800D18C4FBBB2CB
:101A300000220CA80178200000F014FB01002BD13B
:101A40005B20205C012823D15B2026540196009660
:101A5000052300220421200000F020F801001BD102
:101A60002000FFF743FF002803D001026320084352
:101A700012E020005B308078022800D1E768BBB21A
:101A800002220CA80178200000F0ECFA010003D13A
:101A9000022072490870002005B0F0BD70B582B018
:101AA00004000D00079E009600F0EAF801003AD10C
:101AB000022D05DB6B48E083623020846A482BE00E
:101AC0005C20215C18A0102912DA490041181C3949
:101AD0000988E1835C21615C49004118103909885B
:101AE00021845C21615C49004018001F008813E0DC
:101AF0000A3989104900415AE1835C21615C0A3945
:101B0000891049004118898921845C21615C0A3966
:101B1000891049004018008B60843200069920002B
:101B2000FFF719FE002076BD6BA08DA05FA311A664
:101B30004CA967AFE0A6D2A098A5BFA671A9C9AF6E
:101B400034A002A3A3A52CA797A9BEB1F3B58DB06D
:101B500017001E00159C169D0B21681D07F057F9F4
:101B6000E078C0012871A078C001E17849080143FC
:101B7000E9706078C001A17849080143A970207814
:101B8000C0016178490801436970207840088021CC
:101B900001432970354800685621405C009000BF21
:101BA00033A31022290001A805F02AFC010052D11C
:101BB00001A8017BFE220A400273149909094173AE
:101BC000179A002A02D110220A434273149909017C
:101BD0003205120F0A438273C673E078C001287180
:101BE000A078C001E17849080143E9706078C0013C
:101BF000A17849080143A9702078C001617849089B
:101C00000143697020784008287018480068562100
:101C1000405C009016A31022290009A805F0F0FBF3
:101C2000010018D10120009009AB102201A905A8DC
:101C300005F0E6FB01000ED138000BD00D9805A988
:101C40000E9A0B7814785C400470521C491C401C9E
:101C50007F1EF6D100200FB0F0BD00002803002049
:101C6000280A000067AF0000BEB100002C0300206E
:101C700000112233445566778899AABBCCDDEEFF6C
:101C8000F2B594B0040017001D00022606965420F9
:101C9000205A401C542160520005000D605257210B
:101CA000615C01291AD1002804D15A20205C401C13
:101CB0005A21605414A8007804280FD05420205AC8
:101CC000010509D05821615A002907D001F0AAFE68
:101CD000481E8041C00F02E0012000E00020079074
:101CE000280004D13878C107C90F0E4310E0012D38
:101CF00001D100260CE0681E03214210920F121839
:101D000092109200801A0E1AF6B2B01CC0B2069061
:101D100014A80078002816D0022845D003D3042840
:101D200074D014D39DE00021280009D020003E305B
:101D30008A1DD2B23B788354491C7F1CA942F5DB33
:101D4000B0013E218CE0387880013E2188E0B0016E
:101D50003E21605404AA921C05A905A8801C05F028
:101D600011FB002802D001029220E1E0082044216A
:101D700060546846C08A452160546846C08A000A9B
:101D8000462160546846808A472160546846808AAC
:101D9000000A4821605404980014492160540498B2
:101DA000001400124A215BE0B0013E21605404AAF5
:101DB000921C05A905A8801C05F0E4FA002802D0B1
:101DC00001029320B4E00920442160546846C08A8F
:101DD000452160546846C08A000A4621605468461E
:101DE000808A472160546846808A000A48216054EE
:101DF00004980014492160540498001400124A21E8
:101E000060546A20205A64304B2129E0B0013E2101
:101E1000605404AA921C05A905A8801C05F0B2FA1A
:101E2000002802D00102952082E00A20442160545B
:101E30006846C08AC82101F085FC45216054684687
:101E4000808AC82101F07EFC462160540498001469
:101E50000A2101F001FD472160545A20205C4821ED
:101E600060543E20215C1A98400120221040084313
:101E70003E2160545421615A0905090F01433E2057
:101E800021545420205A3F2160546C20205C402172
:101E9000605420006C3041784122A1548178422264
:101EA000A154C1784322A1545721615C012933D147
:101EB00014A9097804292FD0290012D001210391F7
:101EC00008A9029101905A20205C00905420235AC6
:101ED0002A002100443120004430FFF737FE00285B
:101EE00024D108AA5A20205C10700021A81D2300CC
:101EF0003E335B5C56187370491CC9B28142F6DBF5
:101F000004ABEA1DD2B208A90CA800F0E7FC002837
:101F100010D0010296200BE004ABAA1DD2B2210022
:101F20003E310CA800F0DAFC002803D00102912019
:101F3000084335E000210698002811DDA81D0CABF0
:101F4000069A6E46367C76189E19103E3678270023
:101F50003E37C0B23E54491C401C9142F1DB069210
:101F600006982D18AE1D5C202654F1B220003E309C
:101F700000F072FB010A22003E32F6B291552100B8
:101F80003E31ED1DEDB248555C20205C801D5C218A
:101F900060545B20205C079901435B2021540020A2
:101FA00015B0F0BDF0B587B004000F00150000209B
:101FB000FEF722FD06002ED12800FEF75FFE060088
:101FC00003D0FEF7C3FD310226E0AA216846017066
:101FD000417079006118CA8B120A8270C98BC17076
:101FE0003B005C21615C0A1FD2B2011D20003E3023
:101FF00000F0ECFA5C20225C7020215C6846FEF761
:10200000B7FD060003D0FEF7A1FD310204E0FEF7A4
:102010009DFD060003D001029720084300E0002048
:1020200007B0F0BDF8B50400080017001D00FEF76A
:10203000E3FC060015D13800FEF720FE060007D1AC
:102040002A00302021560520FEF704FF060003D0A9
:10205000FEF77CFD3000F2BDFEF778FD060000D1F2
:102060000020F2BDFAB585B00027002501970026B3
:102070006946097D012900D1012669468A7004005C
:102080005D20205C012810D14F703220205C012897
:102090000FD1002A0DD0002E0BD00A2005F074FBC2
:1020A000002834D0010270200EE1684601227240FF
:1020B00042706846008B00284CD05D20205C0228CE
:1020C00048D16846008B05F0A5FB00281CD10021F3
:1020D0002000FFF7F5FB6B4602003120215C200059
:1020E000FFF7A0FF002819D168460078002818D112
:1020F000A068401E85421CD2032005F061F900282B
:1021000017D001027920DFE001027720DCE005F042
:102110006FFB0028CDD001027120D5E001027620AE
:10212000D2E068460078012803D105F093FB00282F
:1021300041D16D1CEDB2A1688D4203D26946097888
:102140000129BED122695107490FD2085019C00098
:10215000081820615D20205C022804D168460078C0
:10216000012800D0B2E00025694689780291491E15
:1021700004910299491C03912900200000F0A4F960
:10218000020029002000FFF70DFF010000D0A4E0AD
:102190005D20205C022802D12069401C2061002DB6
:1021A0002AD15D20205C6946097D01290ED10228D3
:1021B00004D1132003E00102782085E0142005F00B
:1021C000E3FA002818D0010275207DE0012813D120
:1021D0003220205C01280FD1E08E039901F03CFBF6
:1021E0000100142001F0AEFA80B20028019003D063
:1021F00005F0CAFA002833D15D20205C02280AD1FC
:102200000298854207DA002D05D1FA20400105F039
:1022100001FB002827D16846407805F0D1F8002856
:1022200024D15D20205C022830D1029885422DDA2D
:10223000691CC9B22000FFF743FB6B460200312046
:10224000215C2000FFF7EEFE002812D168460078DE
:10225000002814D105F0FEFA00280DD1012715E061
:102260000102722030E001027B202DE00102742087
:102270002AE001027A2027E001027C2024E0049871
:10228000854203D105F0E6FA00281BD16D1CEDB2A2
:102290000398854202DA380000D16DE75D20205CAA
:1022A000012819D13220205C012815D101980004A1
:1022B00012D0002E10D105F09BFA00280CD001029C
:1022C000732001E001027D20084306E068460078A3
:1022D000002801D17E2000E0002007B0F0BD70B5DD
:1022E00004000D001600012E07D105F081FA002828
:1022F00003D001029820084370BD62695D20205C14
:10230000022801D1222100E019213300012000F030
:102310000BF8010007D12A000121200000F020F86D
:10232000010000D1002070BD70B50C001500012027
:10233000FEF762FB060001D001020CE02800FEF768
:102340009DFC060004D1200005F01EFA060005D011
:10235000FEF7FCFB3102E020084370BD002070BD99
:10236000F2B590B0160000256A46957400271570E6
:1023700001005431069108AC059004AA05996A3110
:1023800008A8FEF7E1FC01906846007C01286FD1A7
:1023900010A8007801284BD104AB5B1C0598542190
:1023A000425A01466C3108A800F096F905005FD149
:1023B0006846407C012858D10795019D0698C07851
:1023C000012824D1002003900CA8029005986C30BD
:1023D000019006988079009005985421435A08226C
:1023E000211D3000FFF7B2FB69460870FEF7AEFB17
:1023F00006006846007C002803D005F0EBF969462A
:1024000088740798002836D00006010C51E0207926
:10241000307060797070A079B070E079F070207AD7
:102420003071607A7071A07AB071E07AF071DDE796
:1024300001200021725C635C9A4200D00020491C9C
:10244000725C635C9A4200D00020491C725C635C41
:102450009A4200D00020491C0F29EBDB0699162276
:10246000895E05F06FF8070002D10198002884D03A
:102470000795019DBAE7002D02D02D06290C18E022
:10248000002E01D0310214E06846807C002802D082
:102490006846807C0CE0002F04D039029A20084363
:1024A00080B20FE0684600780028684604D00078C3
:1024B00001029A20084305E0007C002801D19B20FE
:1024C00000E0002011B0F0BDF8B504000D005D2063
:1024D000205C042801D0022809D168002018018B53
:1024E0002000603080884143206840181FE0680069
:1024F0002618308F811F89B22000FFF7D6F8070019
:102500002000603000890090308F401E062101F0CD
:102510009FF90D48414300984018318B9622920054
:102520004A43811820684018084A5743C019226E50
:102530005208801A002D05D162685118226E520887
:10254000891A6161F2BD0000A8610000E0930400F7
:102550004069704780B505F00DF8002802D00102EF
:102560009920084302BD0000F8B404000D001600D5
:10257000012B03D10821144A0A2002E005217F2201
:1025800006206B461E805D802300002B00D11300C7
:102590001E000641012535401F000F4101263E4027
:1025A0005B041B0C6E4002D01D0001232B43134023
:1025B0006C4624889C42E8DB6C466488A342E4DBDA
:1025C0001800F2BC704700BFFF070000F1B582B0F1
:1025D0000F0016001C000025002E03D0310038002B
:1025E00006F015FC30002CD0029A31003800802310
:1025F0006E463470019200BF14A26C462478A40089
:102600001219545D0278019E37781E0037420AD0B5
:10261000641EA441E40F6643164306700AA2555D8A
:10262000AD1CEDB204E066431643067006A2555D8C
:102630005B08E0D16A461478019A401C521C491E7E
:10264000D5D103B0F0BD0000000001010000000082
:10265000000101000001000170B402000B00002025
:10266000190014D00C4C80252D02010010780002B6
:10267000484008214600284203D03000604080B224
:1026800000E0B0B2491EF5D1521C5B1EEDD10349EA
:102690004140080070BC704721100000FFFF00009F
:1026A00070B402000B000021180011D02F248025E7
:1026B0001078414008204E00294203D0310061408B
:1026C000C9B200E0F1B2401EF5D1521C5B1EEFD141
:1026D000080070BC70470000FCB58BB004000F0010
:1026E00000F06DF8002001250194002473A1019AE7
:1026F0000F2300940E78B4461678C6400124344067
:1027000066466643009C6640F4B2521C491C5B1E40
:10271000EFD101996DA2125D89180A7801238340D7
:1027200053400B70401C0828DFDB019E0A21301D3E
:10273000FFF7B6FFB17B81423ED102AC3878207002
:1027400078786070B878A070F878E0706846808D0E
:1027500020716846808D000A60713079A0717079AF
:10276000E071B0792072F0796072307AA072707A7C
:10277000E072B07A2073F07A60733878A07378785A
:10278000E0734B4800685621405C0090494B102292
:1027900002A902A804F034FE01000ED1307B21789A
:1027A000884206D1707B6178884202D10C9805700E
:1027B00002E000200C99087000200DB0F0BDF8B4C4
:1027C000030008784978090201435143C805C00D48
:1027D00000D13948009300210023009C08252126C0
:1027E00006404708202E03D0012E01D0002001E032
:1027F0008020400038436D1EF1D180B25D1C2778E7
:102800000600EE407E40267067780126AE40761EB8
:102810000640B4460726F51A6646AE407E4066700E
:102820005B1C641C082BD9DB0023009C09340825A1
:10283000212606404708202E03D0012E01D000207B
:1028400001E08020400038436D1EF1D180B25D1C54
:1028500027780600EE407E40267067780126AE405D
:10286000761E0640B4460726F51A6646AE407E4000
:1028700066705B1C641C052BD9DB082421250540F0
:102880004208202D03D0012D01D0002001E080203E
:1028900040001043641EF1D1009A927B80B25B1C11
:1028A000D8405040009A90730098C173F1BC7047B3
:1028B0002C030020701C0008FF0100000102040826
:1028C00003060C0B050A070E0F0D09000F0001048B
:1028D0000208050A030E0907060D0B0C79B582B034
:1028E0000020112A01DB202500E010251D700025A5
:1028F000541E0094114C01911978EEB28E420FD201
:102900000199095CEDB261550099884202D0401CE2
:10291000C0B200E000206D1CEEE7002004B070BDE6
:102920000298074A12685623D25C0092054B0A00AF
:10293000210004F065FD0100EFD0EFE73003002037
:102940002C030020701C0008F8B50025A048016C7D
:10295000A04CA8000A5C22544A1C125C631C1A5446
:102960008A1C125CA31C1A54CA1C125CE31C1A5465
:102970006D1C032DEDD92C2D37D2A800261804226A
:10298000311F684606F048FA6846A90719D103784E
:102990004178017081784170C2788270C37000BF45
:1029A0008DA30778DF5D0770595C4170995C817079
:1029B000C178595CC170017836A2AB08D25C4A403C
:1029C0000270310010390A780378534033704A7826
:1029D0004378534073708A7883785340B370C978D2
:1029E000C0784840F0706D1CC5E7F1BDF8B5002116
:1029F0000023774802791024A41A056C05E0754E6F
:102A0000E85C5F42F619F0735B1CA342F7D1714892
:102A100003E05C182C5D4454491C9142F9D3042610
:102A20006DA46D466B48B10047180422391F6846F3
:102A300006F0F2F9B00717D12A7868782870A878DC
:102A40006870E978A970EA702A78A25C2A70205C24
:102A50006870605CA870E878205CE8700DA0297848
:102A6000B208805C484028703800103801782A7815
:102A70004A403A7041786A784A407A708178AA78F8
:102A80004A40BA70C078E9784140F970761C2C2E23
:102A9000C8D3F1BD8D01020408102040801B366CA4
:102AA000D8AB4D9A2F5EBC63C697356AD4B37DFA16
:102AB000EFC5913972E4D3BD61C29F254A94336654
:102AC000CC831D3A74E8CB8D0102040810204080AD
:102AD0001B366CD8AB4D9A2F5EBC63C697356AD453
:102AE000B37DFAEFC5913972E4D3BD61C29F254A27
:102AF000943366CC831D3A74E8CB8D010204081030
:102B00002040801B366CD8AB4D9A2F5EBC63C697B5
:102B1000356AD4B37DFAEFC5913972E4D3BD61C291
:102B20009F254A943366CC831D3A74E8CB8D01020D
:102B30000408102040801B366CD8AB4D9A2F5EBC29
:102B400063C697356AD4B37DFAEFC5913972E4D381
:102B5000BD61C29F254A943366CC831D3A74E8CB8D
:102B60008D01020408102040801B366CD8AB4D9AB2
:102B70002F5EBC63C697356AD4B37DFAEFC5913931
:102B800072E4D3BD61C29F254A943366CC831D3A5B
:102B900074E8CB00F8B5002100238A000C4CE46BEC
:102BA000A418E4180B4D26780701BF18FF18ED5D37
:102BB000754025705B1C042BF0DB491C0429EBDB02
:102BC000F1BD000070B50023014900BF02A26EE212
:102BD000C400002050030020637C777BF26B6FC53C
:102BE0003001672BFED7AB76CA82C97DFA5947F010
:102BF000ADD4A2AF9CA472C0B7FD9326363FF7CCEC
:102C000034A5E5F171D8311504C723C31896059A88
:102C1000071280E2EB27B27509832C1A1B6E5AA0AB
:102C2000523BD6B329E32F8453D100ED20FCB15B96
:102C30006ACBBE394A4C58CFD0EFAAFB434D3385FF
:102C400045F9027F503C9FA851A3408F929D38F5D3
:102C5000BCB6DA2110FFF3D2CD0C13EC5F9744170A
:102C6000C4A77E3D645D197360814FDC222A908881
:102C700046EEB814DE5E0BDBE0323A0A4906245C0D
:102C8000C2D3AC629195E479E7C8376D8DD54EA972
:102C90006C56F4EA657AAE08BA78252E1CA6B4C63E
:102CA000E8DD741F4BBD8B8A703EB5664803F60E97
:102CB000613557B986C11D9EE1F8981169D98E9486
:102CC0009B1E87E9CE5528DF8CA1890DBFE642689F
:102CD00041992D0FB054BB16F148C06B4178427931
:102CE0004270427A4271427B427241738178827AA9
:102CF000827081728179827B82718173C178C27B9B
:102D0000C270C27AC273C279C272C1717047F0B523
:102D10000022E349C86B9300C31818785D784540DA
:102D20009E786E40DC7874406E00EF091B256F437F
:102D30007740674047401F705F789D787D406E0008
:102D4000B446EE091B256E4365466E4066407E40E4
:102D50005E709F78DD787D406E00B446EE091B25DD
:102D60006E4365466E4066407E409E70DD786840EA
:102D70004600C0091B277843704044406C40DC701B
:102D8000521C032AC6DDF0BDF0B589B000200890C2
:102D9000C348C06B089989004018079000786946BD
:102DA0000871684607994978C171079989788171D6
:102DB0000799C978417169460979C9091B225143AC
:102DC000417669460979490081766946897E6A4675
:102DD000527E4A40C270C0786946C8766846C0785C
:102DE000C2091B235A430A7640006A46127E4240BB
:102DF0008A736846817B6A46D279D2095A43C27582
:102E00006A46D279520082756A46927D6B46DB7DB6
:102E10005340837080786A46C3091B24634353750B
:102E200040006B465B7D434053736846427B6B4674
:102E30009B79DB09634303756B469B795B00C37425
:102E40006B46DB7C6C46247D5C40447043786C466A
:102E5000DD091B267543A5745C00807C60406C46D0
:102E60006D466D79ED09754365746D466D796D003C
:102E700025746D462D7C6E46767C6E4026702478D7
:102E80006F46E6091B256E43FE736D4664006E4671
:102E9000F67B66402E736C46247BE6091B256E4349
:102EA000FE720606F60F6E43BE72D6096E437E7240
:102EB000CE096E433E726D462D796E46F67E6E40AB
:102EC00076006D466D7E75406E46367E6E404900DA
:102ED00071406D462D7A4D406946C97969406D460D
:102EE000AD7D4D406946C97D694052004A40694602
:102EF000497A51406A4692794A40590051406A469F
:102F0000927C4A40410051406A46927A4A40694662
:102F10004979514062004A406946C97A5140079A4E
:102F2000117069468D7B89786A46527B6B461B78A7
:102F30006C46247B6E4636796D0075406E46367A57
:102F40006E406D46AD7D75406E46F67D6E40490023
:102F500071406D466D7D4D40510069406A46527A20
:102F60004A406946897951406A46D27C4A4069465E
:102F7000097D514042004A406946897A51406A467B
:102F800052794A40590051406A46D27B4A4061001A
:102F900051406A46D27A4A4007994A706946CD78CC
:102FA000897B6A46527B6B465B786C46247B6E4617
:102FB00036796D0075406E46367E6E404900714030
:102FC0006D462D7A4D406946C979694052004A40A4
:102FD0006946497A51406A46D27C4A406946097D31
:102FE00051405A004A406946897C514042004A405B
:102FF0006946897A51406A4652794A406946097C55
:1030000051406A46527C4A40610051406A46D27A39
:103010004A4007998A706946897B6A4692786B466E
:103020005B7B6C4624786D462D7B6E463779B67E89
:103030007E406F467F7E7740490079406E46367A03
:103040004E406946C979714052004A406946497DFF
:1030500051405A004A406946497A51406A4692793D
:103060004A40400050406946897A41406846007CA9
:1030700048406946497C4140600048406946C97BF8
:103080004140680048406946C97A41400798C1708C
:103090000898401C0890032800DC79E609B0F0BDD0
:1030A000C400002070B50023D74900BF07A2002448
:1030B000CD6BED18A600AD192E78965D2E70641CB0
:1030C000042CF5DB5B1C042BF1DB70BD52096AD5C7
:1030D0003036A538BF40A39E81F3D7FB7CE339820D
:1030E0009B2FFF87348E4344C4DEE9CB547B94325C
:1030F000A6C2233DEE4C950B42FAC34E082EA166A4
:1031000028D924B2765BA2496D8BD12572F8F6647A
:1031100086689816D4A45CCC5D65B6926C704850F5
:10312000FDEDB9DA5E154657A78D9D8490D8AB00AA
:103130008CBCD30AF7E45805B8B34506D02C1E8FD3
:10314000CA3F0F02C1AFBD0301138A6B3A9111410F
:103150004F67DCEA97F2CFCEF0B4E67396AC7422F8
:10316000E7AD3585E2F937E81C75DF6E47F11A7176
:103170001D29C5896FB7620EAA18BE1BFC563E4BAF
:10318000C6D279209ADBC0FE78CD5AF41FDDA83371
:103190008807C731B11210592780EC5F60517FA9B1
:1031A00019B54A0D2DE57A9F93C99CEFA0E03B4DE0
:1031B000AE2AF5B0C8EBBB3C83539961172B047E54
:1031C000BA77D626E169146355210C7D8E48C06B11
:1031D000417B427A42734279427242784271417035
:1031E0008178827A827081728179827B8271817327
:1031F000C178C279C270C27AC271C27BC272C17315
:10320000704710B50020FFF7C5FC0124FFF7DAFC7A
:10321000FFF762FDFFF77BFDE0B2FFF7BBFC641C2C
:10322000E0B20A28F2DBFFF7CDFCFFF755FD0A20DC
:10323000FFF7B0FC10BD10B50A20FFF7ABFC092466
:10324000FFF7C4FFFFF72EFFE0B2FFF7A3FCFFF785
:103250009BFD641E2006F3D1FFF7B8FFFFF722FFA6
:103260000020FFF797FC10BD00228B5C8354521C9A
:10327000102AFADB704730B50021634A526C4318BC
:103280001C78555C65401D70491C1029F7DB30BD6A
:10329000F7B505000E001C001007000F0090280075
:1032A000FFF7E2FF584FFD633C64FFF79FFB787820
:1032B000B978014302D03800703000E0B86C78640F
:1032C000340000260DE02000FFF7D5FF2100280084
:1032D000FFF7CAFFFD63FFF794FF7D6410341035DC
:1032E000103602988642EED32100009800280CD0B8
:1032F0002800FFF7B9FF10200099411A00982818FC
:1033000005F085FDFD63FFF77CFF1020797800292B
:1033100002D03900603107E0B978002902D03900C5
:10332000503101E0F96CF87838713964F7BDF5B5C2
:1033300085B00C001007000F009001AD01A8FFF749
:1033400093FF314F01A8F863FFF7FEFAB86C786479
:1033500000260DE021002800FFF786FFFD63FFF740
:103360006AFF2800FFF787FF7C64103410351036A1
:1033700006988642EED32100009800280CD0280041
:10338000FFF772FF10200099411A0098281805F0E5
:103390003EFDFD63FFF74FFF0599002200203B79BA
:1033A0001024E51A01AC05E04642A619F67B0E543E
:1033B000401CC0B2A842F7D103E0665D45194E55E6
:1033C000521CD5B29D42F8D307B0F0BD7FB50C00BA
:1033D0000D4E3100703171643064FFF7B5FA01258C
:1033E00010222100684605F017FDF463FFF723FF64
:1033F0002000FFF740FF10226946706C05F00CFDBD
:1034000010346D1EECD17FBDC400002002684068FE
:10341000121800208300CB58D218401C0828F9D37A
:10342000D0437047FBB594B01700002404A804F003
:1034300013F9002204AD0021AB5CC918521C382AD4
:10344000FAD3BD4E002804D1002902D0A86B8142D6
:1034500002D0346101207EE005986C46010E0129FE
:1034600002D0022932D03FE0010C2170000AE07343
:103470002020285C60702220285CA0702420285C1A
:10348000E0702620285C20712820285C60712A20AA
:10349000285CA0712C20285CE0712D20285C207213
:1034A0002120285C60722B20285CA0722320285CDD
:1034B000E0722920285C20732520285C6073272077
:1034C000285CA0732900103168460BE06A460C2185
:1034D0009A4804F0C9F8684621000C3102680A6075
:1034E00029001031FFF772FF1C9C3800159F1499BA
:1034F00004AA127905920270049830610498086059
:103500000822290008313000083005F085FC082227
:1035100029000831380005F07FFC109816990860E2
:10352000686B207028213000143005F070FC1022E8
:10353000290010313000243005F06EFC30001430CA
:10354000B06430002430306430002430F064102047
:103550003071F070002017B0F0BDF4B594B00600E3
:103560000D006A460421F820400004F063F80CAA1C
:103570002021080104F05EF801AA0821062004F0C9
:1035800059F80CA901A8FFF741FF6B4C0C99216178
:103590000027002906D00022D243914202D0009990
:1035A000884202D02761012073E00B950CAD082200
:1035B000291D2000083005F02FFC20693060002113
:1035C0000B9822000832525C4254491C0829F8DB4F
:1035D0000F20297B0F220A4000D1012214990A7082
:1035E00003AA21693B069B0DD1507F1CF9B2042927
:1035F000F7DB2169079107A901AA0B1DC0CAC0C347
:103600002269D3430A93CA7B2B7B872B01DA1343AE
:1036100000E01340CB730A7B6B7B192B01DA134359
:1036200000E013400B7303A90A7AAB7B802B01DA0D
:10363000134300E013400B72CA7AEB7B802B01DA54
:103640001A4300E01A40CA721840022801DA022028
:1036500002E00E2800DB0D20207103A8A06407A85B
:10366000206410222900103120002430FFF75FFE73
:1036700010212000143005F0CAFB20001430A06493
:103680002000243020642079E07020002430E064A1
:10369000002015B0F0BD38B5274C246C002C01D1AA
:1036A000012032BD049D002D00D12300FFF7F0FD65
:1036B000002032BD2049002804D010200A005032DA
:1036C000012302E0C878CA6C00238B700BE01A4912
:1036D000002804D010200A006032012302E0C878DC
:1036E000CA6C00234B700A640871002070471249AD
:1036F00008700020704710490A78002A02D010494B
:10370000016006E00B0010339B5C8354521C042ABA
:10371000F8DB0020704708490A6C002A01D101201B
:10372000704700220B0008339B5C8354521C082A0C
:10373000F8DB002070470000C40000205000F81F94
:1037400098BADCFE002243088B4274D303098B42F3
:103750005FD3030A8B4244D3030B8B4228D3030C61
:103760008B420DD3FF22090212BA030C8B4202D303
:103770001212090265D0030B8B4219D300E0090A2B
:10378000C30B8B4201D3CB03C01A5241830B8B4234
:1037900001D38B03C01A5241430B8B4201D34B031D
:1037A000C01A5241030B8B4201D30B03C01A524182
:1037B000C30A8B4201D3CB02C01A5241830A8B4207
:1037C00001D38B02C01A5241430A8B4201D34B02F0
:1037D000C01A5241030A8B4201D30B02C01A524154
:1037E000CDD2C3098B4201D3CB01C01A5241830908
:1037F0008B4201D38B01C01A524143098B4201D342
:103800004B01C01A524103098B4201D30B01C01A6C
:103810005241C3088B4201D3CB00C01A52418308E6
:103820008B4201D38B00C01A524143088B4201D313
:103830004B00C01A5241411A00D201465241104673
:103840007047FFE701B5002000F0F0F802BDC04668
:103850000029F7D076E7704703460B437FD4002258
:1038600043088B4274D303098B425FD3030A8B4214
:1038700044D3030B8B4228D3030C8B420DD3FF227E
:10388000090212BA030C8B4202D31212090265D04C
:10389000030B8B4219D300E0090AC30B8B4201D3FF
:1038A000CB03C01A5241830B8B4201D38B03C01A46
:1038B0005241430B8B4201D34B03C01A5241030BBD
:1038C0008B4201D30B03C01A5241C30A8B4201D36E
:1038D000CB02C01A5241830A8B4201D38B02C01A19
:1038E0005241430A8B4201D34B02C01A5241030A90
:1038F0008B4201D30B02C01A5241CDD2C3098B4275
:1039000001D3CB01C01A524183098B4201D38B01F1
:10391000C01A524143098B4201D34B01C01A524194
:1039200003098B4201D30B01C01A5241C3088B42D9
:1039300001D3CB00C01A524183088B4201D38B00C4
:10394000C01A524143088B4201D34B00C01A524166
:10395000411A00D201465241104670475DE0CA0F3D
:1039600000D04942031000D34042534000229C46FD
:1039700003098B422DD3030A8B4212D3FC22890107
:1039800012BA030A8B420CD3890192118B4208D3DD
:10399000890192118B4204D389013AD0921100E03F
:1039A0008909C3098B4201D3CB01C01A5241830953
:1039B0008B4201D38B01C01A524143098B4201D380
:1039C0004B01C01A524103098B4201D30B01C01AAB
:1039D0005241C3088B4201D3CB00C01A5241830825
:1039E0008B4201D38B00C01A5241D9D243088B427B
:1039F00001D34B00C01A5241411A00D2014663461E
:103A000052415B10104601D34042002B00D5494281
:103A1000704763465B1000D3404201B5002000F0C0
:103A200005F802BD0029F8D016E770477047C04678
:103A3000002B15D1002A13D1002906DB01DC002858
:103A400006D00020C043410802E080210906002082
:103A500007B4024801A14018029003BDD1FFFFFF47
:103A600003B4684601B5029800F012F9019B9E4626
:103A700002B00CBC7047C046002B11D1002A0FD1F8
:103A8000002900D1002802D00021C943081C07B436
:103A9000024802A14018029003BDC04691FFFFFFFB
:103AA00003B4684601B5029800F030F8019B9E46C9
:103AB00002B00CBC7047C046F0B5CE464746150470
:103AC0002D0C2E0080B50704140C3F0C9946030CF6
:103AD0007E435D43674363437F19340CE4199C467E
:103AE000A54203D980235B029846C4444B46434316
:103AF0005143250C36046544360C2404A4195B1983
:103B0000591820000CBC90469946F0BDF0B54F46C0
:103B10004646D646C0B5040082B00D009146984690
:103B20008B422FD82CD04146484600F0CDF82900D2
:103B30000600200000F0C8F8331A9C46203B9A4645
:103B400000D576E04B46524693401F004B466246F6
:103B500093401E00AF4228D825D05346A41BBD4138
:103B6000002B00DA7BE00022002300920193012366
:103B7000524693400193012362469340009318E01C
:103B80008242D0D900220023009201930A9B002B8D
:103B900001D01C605D600098019902B01CBC904689
:103BA0009946A246F0BDA342D7D900220023009235
:103BB00001936346002BE9D0FB0798464146720803
:103BC0000A437B0866460EE0AB4201D1A2420CD804
:103BD000A41A9D41012024196D410021013E2418A1
:103BE0004D41002E06D0AB42EED9013E24196D4165
:103BF000002EF8D100980199534600196941002B15
:103C000023DB2B005246D3402A006446E2401C00CE
:103C100053461500002B2DDB26005746BE403300CF
:103C200026006746BE403200801A994100900191FB
:103C3000ACE7624620239B1A4A46DA4061461300ED
:103C400042468A4017001F4380E7624620239B1AA2
:103C50002A0066469A402300F3401343D4E76246A5
:103C6000202300219B1A0022009101920122DA40B8
:103C7000019280E72023624626009B1ADE402F0037
:103C8000B0466646B74046463B003343C8E7C046A9
:103C9000F0B583B016001F000090019100F020F8ED
:103CA00004000D0002000B0030003900FFF704FF94
:103CB000009A019B121A8B41089920000A604B6000
:103CC000290003B0F0BDC04610B5002903D100F0B3
:103CD000DFF8203002E0081C00F0DAF810BDC04622
:103CE000F0B54E465746DE464546E0B50F0000218A
:103CF00083B006008946002F06DA390000274642C5
:103D00008F41012149428946002B07DA4946C943C0
:103D1000100089461900002342428B4134003D00C7
:103D200092469846BB4269D866D041465046FFF756
:103D3000CBFF834639003000FFF7C6FF5B461B1AF6
:103D40009C46203B9B4600D575E051465846814035
:103D50000B005146604681400A00BB4261D85ED0EC
:103D600034003D005946A41A9D41002900DA7AE04A
:103D70000021002001260090019159468E400196B5
:103D8000614601268E4061460096002950D0D90731
:103D900056085F080E4363460EE0AF4201D1A642CB
:103DA0000CD8A41BBD41012124196D410022013B07
:103DB00064185541002B06D0AF42EED9013B2419BF
:103DC0006D41002BF8D1009801995B4600196941BB
:103DD000002B3DDB2E00DE4063462C00DC405B46C2
:103DE000002B4BDB34005D46AC4023006446A6400C
:103DF0003200801A994103E0B24296D90020002196
:103E00004B46002B04D003000C0000215842A14176
:103E100003B03CBC90469946A246AB46F0BDB142C9
:103E20009ED9002100200090019161460029AED169
:103E300000980199E4E72023624651469B1AD94035
:103E40004046009161468840030000990B4380E79B
:103E5000624620239B1A2A009A40260013006246DD
:103E6000D6401E43B8E7614620260127761A002077
:103E70000021F74000900191019781E767462023D8
:103E800062463500BC409B1ADD4023002B43ADE762
:103E90001C2101231B04984201D3000C10391B0A7A
:103EA000984201D3000A08391B09984201D300093E
:103EB000043902A2105C40187047C0460403020295
:103EC0000101010100000000000000000023C25CAD
:103ED0000133002AFBD1581E70470000F0B5D646CA
:103EE000474680B58BB01422002105A804F0E6FFF8
:103EF0005E4BDA6A04252A43DA62DA6A2A400092C3
:103F0000009AD96A80221143D962D96A0A40019283
:103F1000019ADA6A01273A43DA62DA6A3A4002928F
:103F2000029ADA6A02218A460A43DA62DA6A0A40A7
:103F30000392039AD96A08221143D962DB6A1A40B4
:103F40000492049B01220221A020C00500F0D6FDAE
:103F500090235B00984600221900A020C00500F0C5
:103F6000CDFD01221021424800F0C8FD80239B01B5
:103F70000593404B0693079705A93F4800F0F8FCCE
:103F80003E4B0593032606960024079405A93A485C
:103F900000F0EEFC05960696079405A9384800F057
:103FA000E7FC0597374B06935346079305A932481C
:103FB00000F0DEFC112305930694079405A9A020C8
:103FC000C00500F0D5FC5346059306970797089463
:103FD00005A9A020C00500F0CBFC43460593069739
:103FE0000794089405A9A020C00500F0C1FC05971E
:103FF0000694079405A91E4800F0BAFC224B0593CD
:104000000696079405A91A4800F0B2FC9E231B02ED
:1040100005930696079405A9A020C00500F0A8FC0A
:1040200005950696079405A9184800F0A1FC1023F1
:10403000059306970797089405A90D4800F098FC8A
:1040400000220021052000F00BFC052000F038FCC8
:1040500000220021072000F003FC072000F030FCC4
:104060000BB00CBC90469A46F0BDC0460010024012
:10407000000400500000211000080050CEDF0000B6
:10408000001C005000001110E4FF0000000C005064
:1040900000B58BB01E4BD96A04221143D962D96A8C
:1040A0000A400092009AD96A80221143D962D96AE3
:1040B0000A400192019ADA6A01210A43DA62DA6A55
:1040C0000A400292029AD86A02221043D862D86A41
:1040D00002400392039AD86A08221043D862DB6A2E
:1040E0001A400492049B80239B010593094B06937D
:1040F000079105A9084800F03BFC00220021072099
:1041000000F0AEFB072000F0DBFB0BB000BDC046AB
:1041100000100240000021100008005010B50848AF
:10412000084B036006234360074BC360836000F0C5
:10413000F9FC002800D110BD00F008F8FBE7C046EC
:104140000C04002000300040FF0F0000FEE70000DC
:1041500000B59DB0382200210EA804F0AFFE142255
:10416000002109A804F0AAFE24220021684604F0D8
:10417000A5FE1D490B681D4A1A4080231B011343ED
:104180000B600A230E93093B119310221292139392
:10419000002318930EA800F087FD00281ED10F23DE
:1041A00009930E3B0A9300230B930C930D9300216C
:1041B00009A801F033F8002812D126230093002328
:1041C000049380231B01059380239B02019368467F
:1041D00001F01EF9002805D11DB000BDFFF7B6FFA4
:1041E000FFF7B4FFFFF7B2FF00700040FFE7FFFFEB
:1041F00010B500F0FDFAFFF7ABFFFFF76FFE00F020
:104200000BFAFFF78BFF00F051FA00F0D3F800F043
:1042100069FA00F037F903F0D1FC03F0D9FCFCE7B0
:1042200010B5064B1A78013A511E8A41D2B21A7063
:10423000A0202021C00500F061FC10BD200400205A
:1042400000B583B06B460733032218210F4803F0F3
:104250002DFB002806D06B46D9790D4803F04CFCA5
:1042600003B000BD0B4803F047FC0848032303706C
:10427000094B4360094A0A4B8260C36025230374DB
:104280000322182103F0F4FAEAE7C04628040020CC
:10429000A09C00087C9C000854B826097FAF3D0212
:1042A00074A11D48024B01221A7000225A60704707
:1042B0002004002030B58FB0702003F05FFB284849
:1042C00003F01AFC04F074F90100264803F014FC12
:1042D00004F09CF9FFF7B4FFFFF7E4FF03F04AFD99
:1042E0000DA803F003FE0D991F4803F005FC09A873
:1042F00003F006FE102109A803F03CFB1B4803F065
:10430000FBFB002405E009AB195D194803F0F4FB41
:1043100001340F2CF7DD174803F0EEFB06AC164B0B
:10432000220023CB23C204AD08220021280004F080
:10433000C5FD03950023029301330193023B0093D3
:10434000002302220421200003F08CFD8021FA20AA
:104350000A4A4900C00003F071FC0FB030BDC046EE
:10436000B49C0008C09C0008D09C0008EC9C00088D
:10437000F49C0008FC9C00080897000821420008F3
:1043800010B582B0084BDB680193084C03236268C8
:10439000134001AAD15C064803F0AEFB6368013309
:1043A000636002B010BDC0460897000820040020DA
:1043B000009D000800B587B01422002101A804F078
:1043C0007DFD002300932048204A026043607F2245
:1043D00082608032C260036143618361C36101F026
:1043E0004BF9002823D101A900230B704B708B706F
:1043F000CB600B610122144801F0B6F9002819D1F5
:1044000001236A461370537093700023D370012206
:1044100069460D4801F030FA00280ED10022002133
:10442000094801F0F9FA00280AD107B000BDFFF7EA
:104430008DFED8E7FFF78AFEE2E7FFF787FEEDE79C
:10444000FFF784FEF1E7C04640040020002800404A
:1044500010B50268094B9A4200D010BD084A116D90
:104460008023DB020B43136500220021022000F0B1
:10447000F7F9022000F024FAEFE7C04600280040D8
:104480000010024010B50E480E4B036082235B0003
:10449000436000238360C360036143618022920014
:1044A0008261C3610362436283620733C36201F0C6
:1044B00001FC002800D110BDFFF748FEFBE7C04615
:1044C000640400200030014030B589B0040014229B
:1044D000002103A804F0F2FC22681C4B9A4201D090
:1044E00009B030BD1A4B596B802252010A435A63FE
:1044F000D96A01221143D962D96A0A400192019A0C
:10450000DA6A02242243DA62DB6A23400293029BC6
:10451000C0230393049403250695A02003A9C00596
:1045200000F026FA082303930494002305930695CC
:10453000079303A9074800F01BFA00220021192065
:1045400000F08EF9192000F0BBF9C9E700300140F6
:104550000010024000040050054B5A6B01210A4331
:104560005A63996B802252050A439A637047C0468A
:10457000001002407047FEE77047704710B504F026
:1045800023FB10BD10B5024801F016FB10BDC0465C
:104590004004002010B5012000F0B6FA10BD10B59F
:1045A0008020800100F0B0FA10BD000010B5024874
:1045B00001F0A8FD10BDC04664040020104B19682E
:1045C000802252000A431A60DA680E490A40DA6013
:1045D0001A680D490A401A609A6801218A439A6054
:1045E0001A680A490A401A60DA6809490A40DA601A
:1045F00000221A61074B802212059A607047C0465C
:10460000001002400C40FF88F6FFF6FEFFFFFBFFA4
:10461000FFFF02FF00ED00E000B587B0102200218F
:1046200002A804F04BFC08220021684604F046FC76
:104630001448154B0360002343608360C36003612B
:10464000436101F061FE002813D180235B010293D6
:1046500002A90C4801F072FE00280DD1002300933E
:1046600001936946074801F0DBFE002807D107B037
:1046700000BDFFF76BFDE8E7FFF768FDEEE7FFF72A
:1046800065FDF4E7BC040020000801400268054B0A
:104690009A4200D07047044A536B04210B43536382
:1046A000F8E7C046000801400010024010B50B4872
:1046B0000B4B036096239B01436000238360C36020
:1046C00003610C22426183610362436202F0D0F90C
:1046D000002800D110BDFFF739FDFBE7F8040020EA
:1046E0000048004010B50C480C4B0360E1235B020E
:1046F000436000238360C36003610C2242618361D5
:10470000C3610362436202F0B3F9002800D110BD17
:10471000FFF71CFDFBE7C046780500200044004081
:1047200010B588B004001422002103A804F0C6FBD1
:1047300023681F4A934204D01E4A93421BD008B0FC
:1047400010BD1D4B996B8022D2020A439A63D96A2D
:1047500004221143D962DB6A1A400192019B302383
:1047600003932E3B049303220692079303A9134855
:1047700000F0FEF8E3E7104B996B802292020A43A7
:104780009A63D96A01221143D962DB6A1A40029204
:10479000029B0C2303930A3B0493013306930133DA
:1047A0000793A02003A9C00500F0E2F8C7E7C046C0
:1047B0000048004000440040001002400008005043
:1047C00010B50400094B1868FA218900FEF7BAFFFA
:1047D00000F08AF8002801D0012010BD013000222D
:1047E0002100404200F03CF80020F6E700000020E5
:1047F00010B5084A136840210B4313600020FFF7EF
:10480000DFFF041E02D00124200010BDFFF7A4FE2C
:10481000FAE7C04600200240014B18687047C046C6
:10482000F805002070B50400FFF7F6FF0500631CD3
:1048300000D00134FFF7F0FF401BA042FAD370BD57
:10484000024A136802218B431360704710E000E0B6
:10485000024A136802210B431360704710E000E026
:1048600070B5002811DB8408134DC034A4006259D0
:1048700003231840C000FC331E008640B243890168
:104880000B4083401343635170BDC0B20F220240FE
:10489000083A920806329200084BD3185D68032448
:1048A0002040C000FF2214008440A54389010A4033
:1048B00082402A435A60E7E700E100E000ED00E0B3
:1048C0001F2318401E3B8340014A13607047C046B7
:1048D00000E100E01F2318401E3B83400149802275
:1048E0008B50704700E100E001380A4B98420FD826
:1048F000094A50600948036A1B021B0AC0210906C5
:104900000B4303620023936007331360002070475A
:104910000120FCE7FFFFFF0010E000E000ED00E0F9
:1049200010B52523C35C022B03D00423C3630120ED
:1049300010BD026813680E218B43136001680A687A
:1049400001239A430A601C22416C0A40016C1C003E
:1049500094404C602522835423330022C254836B3D
:10496000002B02D098470020E2E70020E0E700009B
:10497000F0B5C64600B5002338E0052600E0002665
:10498000AE4035003D430234A400554EA551554C70
:1049900025684246D4432E0026404A68D20302D5F9
:1049A000424615432E004F4D2E606D682E00264066
:1049B0004A68920302D5424615432E00494D6E6067
:1049C000AD682E0026404A68D20202D54246154301
:1049D0002E00444DAE60ED682C404A68920202D52C
:1049E00042462A4314003F4AD46001330A68140047
:1049F000DC4072D001249C4022409046F5D04D68A6
:104A0000022D01D0122D0ED1DD080835AD002F5832
:104A100007261E40B6000F22B24097430A69B240F3
:104A200016003E432E504D686E1E012E03D9112DE7
:104A300001D0122D12D185685F000326BE40B54318
:104A40002E00CD68BD40354385604568A5434A6862
:104A50001609012434409C402C43446007685E00E2
:104A600003242500B540ED432F404A681440B4406C
:104A70003C430460C46825408C68B4402C43C46047
:104A80004A68D200B1D5184D6C6B012634436C6373
:104A90009C08A51CAD00124EAF5903261E40B50060
:104AA0000F26AE40B743A026F605B04200D166E718
:104AB0000E4EB0420BD00E4EB0420AD00D4EB04258
:104AC00009D00D4EB04200D157E7062658E701261F
:104AD00056E7022654E7032652E704BC9046F0BD91
:104AE000000001400004014000100240000400509A
:104AF00000080050000C0050001C0050002A01D19A
:104B0000816270478161FCE710B5054B5B69184213
:104B100000D110BD024B586103F010FDF9E7C0460B
:104B20000004014070B5041E24D00368124A1A60C4
:104B30000368124A1A60036842685A600368826810
:104B40009A60FFF769FE05002368DA68002A06D03C
:104B5000FFF762FE401B3028F6D903200BE01969ED
:104B6000E268914202D01A61002004E0044A1A600F
:104B7000002000E0012070BDCCCC000055550000A5
:104B8000AAAA00000368024A1A6000207047C046C3
:104B9000AAAA000010B50C4A13680324A3431843C3
:104BA00010600A4A1369042003431361012908D0E5
:104BB00040BF20BF20BF054A136904218B43136106
:104BC00010BD30BFF7E7C0460070004000ED00E0C8
:104BD000034A11688023DB000B4313607047C04613
:104BE00000700040034A116880239B000B43136050
:104BF0007047C0460070004010B5264BD9680C23A2
:104C00000B40082B42D00C2B11D0042B09D0214B88
:104C10005A68520B0723134001338020000298404A
:104C200010BD1C4B1B68DB0632D51B48F8E78A0C0D
:104C30000F231340194AD05C890D03221140013122
:104C4000144BDB68DB030DD4124B1B68DB0613D55A
:104C50004201121A93019B1ADB001B181802FEF77F
:104C600071FDDDE74201121A93019B1ADB001B184C
:104C70005802FEF767FDD3E74201121A93019B1A0F
:104C8000DB001B189802FEF75DFDC9E70448C7E783
:104C90000448C5E70010024000093D0018970008CD
:104CA00000127A000024F400F0B583B0041E00D195
:104CB00095E2CA4BDA680C251540DA688026760240
:104CC00016400368DB0736D5082D2CD00C2D28D0D4
:104CD00063688022520293424DD0A022D2029342B6
:104CE00050D0BE4B1A68BE490A401A601A6880212B
:104CF00049020A400192019A1A68BA490A401A60A8
:104D00006368002B4AD0FFF787FD0700B34B1B6891
:104D10009B0310D4FFF780FDC01B6428F6D9032045
:104D20005EE2002ED4D0AD4B1B689B0303D56368B5
:104D3000002B00D156E223689B0764D5E368042D5D
:104D40003CD00C2D38D0002B00D1AEE0A3490A682E
:104D50000920824313430B60FFF75EFD06009F4B63
:104D60001B685B0700D597E0FFF756FD801B022804
:104D7000F5D9032034E2994A116880235B020B4382
:104D80001360BDE7954B19688022D2020A431A606E
:104D90001968802252020A431A60B1E7FFF73CFD0E
:104DA00007008E4B1B689B03C5D5FFF735FDC01B65
:104DB0006428F6D9032013E2002EC4D1874A126872
:104DC000520702D5002B00D10EE2844E726886494C
:104DD0000A40216909020A437260326809218A4344
:104DE00013433360FFF708FFF26812090F231340E3
:104DF0007E4AD35CD8407E4B18600020FFF7E0FC71
:104E0000002800D0ECE12368DB062CD5002D5FD113
:104E1000724B1B689B0503D5E369002B00D1E5E1CC
:104E20006E4A536873490B40616A0B435360536881
:104E30001B021B0A216A09060B435360636A590B64
:104E4000013180231B028B40D16809090F220A40DF
:104E500066498A5CD340664A13600020FFF7B0FCC5
:104E6000002800D0BCE123681B077DD56369002BB7
:104E700067D05A4A136D01210B431365FFF7CCFC31
:104E80000600564B1B6D9B076ED4FFF7C5FC801BBD
:104E90000228F6D90320A3E150494B68524A134037
:104EA0002269120213434B60ADE74C4A136801219B
:104EB0008B431360FFF7B0FC0600484B1B685B0791
:104EC000A1D5FFF7A9FC801B0228F6D9032087E1B2
:104ED000E369002B22D0414A116880235B000B4319
:104EE0001360FFF799FC06003C4B1B689B0506D43A
:104EF000FFF792FC801B0228F6D9032070E1374AA5
:104F000053683C490B40616A0B43536053681B0272
:104F10001B0A216A09060B435360A4E72F4A136852
:104F200035490B401360FFF777FC06002B4B1B68DD
:104F30009B0598D5FFF770FC801B0228F6D903204B
:104F40004EE1264A136D01218B431365FFF764FC84
:104F50000600224B1B6D9B0706D5FFF75DFC801BEF
:104F60000228F6D903203BE123685B0700D48CE0DC
:104F70001A4B9B6BDB001BD4184A916B80235B059B
:104F80000B43936301261D4B1B68DB0512D5A368F9
:104F900080225200934235D0002B4BD10F4B1A6D1B
:104FA00015490A401A651A6D15490A401A652FE01D
:104FB0000026E8E7114A116880235B000B43136069
:104FC000FFF72AFC07000D4B1B68DB05DFD4FFF75A
:104FD00023FCC01B6428F6D9032001E10010024025
:104FE000FFFFFEFFFFFFFBFFFFE0FFFF249700082E
:104FF00000000020FF1FFFFFFFFEFFFF00700040CA
:10500000FFFBFFFF7C4A116D80235B000B431365A0
:10501000A368002B28D0FFF7FFFB0700764B1B6D22
:105020009B0530D4FFF7F8FBC01B744B9842F5D9B1
:105030000320D5E0A022D200934209D06E4B1A6D16
:105040006F490A401A651A6D6E490A401A65DFE712
:10505000694B196D013AFF3A0A431A65196D8022AE
:1050600052000A431A65D3E7FFF7D6FB0700624BED
:105070001B6D9B0507D5FFF7CFFBC01B5F4B98420D
:10508000F5D90320ACE0012E21D023689B063CD546
:10509000A369002B21D0584B9968012001439960E6
:1050A0005A6B02435A63584A116A80239B010B438F
:1050B0001362FFF7B1FB06004F4B9B689B0724D49C
:1050C000FFF7AAFB801B0228F6D9032088E04A4A92
:1050D000936B4E490B409363D7E7474A936801218E
:1050E0008B439360484A136A49490B401362FFF7A8
:1050F00093FB0600404B9B689B0706D5FFF78CFB94
:10510000801B0228F6D903206AE0A36A002B00D195
:105110006EE00C2D49D0022B12D0374A13683D495E
:105120000B401360FFF778FB0400334B1B689B01B7
:1051300039D5FFF771FB001B0228F6D903204FE099
:105140002D4A136833490B401360FFF765FB0500D8
:10515000294B1B689B0106D5FFF75EFB401B02280D
:10516000F6D903203CE02449CB682B4A1340E26A7D
:10517000206B0243606B02431343CB600A688023B9
:105180005B0413430B60FFF747FB04001A4B1B68DB
:105190009B0106D4FFF740FB001B0228F6D9032031
:1051A0001EE000201CE000201AE0134BDA68802388
:1051B0005B021340E16A8B4201D0012010E0F02332
:1051C0009B031340216B8B4201D0012008E0C023D8
:1051D0001B041A40636B9A420CD0012000E00120AE
:1051E00003B0F0BD0120FBE70120F9E70120F7E75C
:1051F0000020F5E70020F3E70010024088130000CC
:10520000FFFEFFFFFFFBFFFF00000140FFFFFFEF7E
:10521000FFDFFFFFFFFFFFFEFFFF02FF70B504008F
:105220000D00002800D1BAE05F4B1A68012313403B
:105230008B420BD25C490B68012293432B430B60DA
:105240000B681A40AA4201D00120A9E023689B07FD
:1052500006D5564AD368F0218B43A1680B43D3602F
:105260002368DB0764D56368022B09D0032B29D0A0
:10527000012B2DD04D4A1268920506D401208FE0F3
:105280004A4A1268920300D48BE04849CA68032056
:1052900082431343CB60FFF7BFFA06006368022B1B
:1052A0001CD0032B28D0012B34D0404BDB680C22C0
:1052B0001A423DD0FFF7B0FA801B3D4B9842F4D91B
:1052C00003206DE0394A12689201DED4012067E0C4
:1052D000364A12685207D8D4012061E0334BDA68AD
:1052E0000C231340082B23D0FFF796FA801B304B7A
:1052F0009842F3D9032053E02C4BDA680C23134077
:105300000C2B15D0FFF788FA801B294B9842F3D954
:10531000032045E0254BDA680C231340042B07D00B
:10532000FFF77AFA801B224B9842F3D9032037E02B
:105330001D4B1A6801231340AB420BD91A490B6865
:10534000012293432B430B600B681A40AA4201D001
:10535000012025E023685B0706D5144AD368154968
:105360000B40E1680B43D36023681B0707D50F4947
:10537000CB68114A13402269D2001343CB60FFF778
:105380003BFC0A4BDA6812090F2313400B4AD35C2B
:10539000D8400B4B18600020FFF712FA00E0012004
:1053A00070BD0120FCE7C046002002400010024012
:1053B00088130000FFF8FFFFFFC7FFFF24970008D6
:1053C00000000020014B18687047C0460000002014
:1053D00010B5FFF7F7FF044BDA68120A07231340F2
:1053E000024AD35CD84010BD001002403497000838
:1053F00010B5FFF7E7FF044BDA68D20A0723134022
:10540000024AD35CD84010BD001002403497000817
:1054100070B5040082231B0102681A425AD0704BF7
:105420009B6BDB0000D593E06D4A916B80235B059D
:105430000B43936301256B4B1B68DB0500D489E0AC
:10544000674B1A68C0239B031A4061680B40934264
:1054500000D194E0C0239B020A001A409A4200D176
:1054600095E05F4B1B6DC022920213401FD011408C
:10547000994202D02268920608D4C0229202A16802
:105480000A409A4213D023681B0510D5544B186D5F
:10549000554A02401E6D8021090331431965196D7B
:1054A000524E314019651A65C30500D576E0636830
:1054B000C022920219001140914200D17EE0484979
:1054C0000B6DC02292026068024013430B65012DF0
:1054D00000D17DE02368DB0706D5414AD36C032168
:1054E0008B43E1680B43D36423689B0706D53C4A92
:1054F000D36C0C218B4321690B43D36423685B0776
:1055000006D5374AD36C3A490B4061690B43D364E3
:1055100023681B0706D5324AD36C36490B40A16974
:105520000B43D36423685B0606D52D4AD36C3249FE
:105530000B40216A0B43D36423681B064ED5284ACF
:10554000D36C2E490B40E1690B43D364002070BD3E
:10555000002570E7234A116880235B000B4313602A
:10556000FFF75AF906001F4B1B68DB0500D567E7FC
:10557000FFF752F9801B6428F5D90320E7E7C02321
:105580009B03A0680340934200D063E769E7144B94
:105590001B689B0300D464E70120D8E7FFF73CF9C0
:1055A00006000F4B1B6D9B0500D580E7FFF734F914
:1055B000801B134B9842F4D90320C8E708490A68B6
:1055C00010480240C0208003034013430B6076E77D
:1055D0000A008B6B0C490B4093637BE70020B6E716
:1055E0000010024000700040FFFFFCFFFFFFF7FFCC
:1055F000FFF3FFFFFFCFFFFFFFFFFFFBFFFFF3FF07
:1056000088130000FFFFCFFFFFFFFFEF70B504001E
:105610000268D368A0218B43D360FFF7FDF8050033
:105620002368DB689B0608D4FFF7F6F8401BFA23D3
:105630009B009842F4D9032000E0002070BD70B5B3
:1056400004000368DA68520601D5002070BD01220B
:105650005242DA60FFF7E0F805002368DB685B067A
:1056600008D4FFF7D9F8401BFA239B009842F4D9DD
:105670000320EBE70020E9E770B5041E63D0212387
:10568000C35C002B40D021230222E2542368C8329D
:105690005A622368773A5A622000FFF7D0FF051E4E
:1056A00038D12268936829490B40936021688A6841
:1056B000636820690343A069034313438B60236835
:1056C000E2681A6121680B69A268120413430B6136
:1056D0002268D36880218B43D3602268D36C7D39E4
:1056E0008B43D3642168CB6CE26960690243134346
:1056F000CB6423689B689B0615D52368FF225A62FA
:105700002123FE3AE2540CE020330022C254FEF77B
:105710009FFEB8E72368FF225A622123FB3AE25436
:105720000125280070BD2000FFF770FF0028E4D09D
:105730002368FF225A622123FB3AE254013B0022F4
:10574000E2540125EDE70125EBE7C046BFFF8FFFDF
:10575000002302E001330A38C0B20928FAD81B013D
:10576000DBB2184370470000F8B504000E00202398
:10577000C35C012B00D178E020230121C154013307
:105780000131C154002A43D103689B685B0601D4F0
:105790000023F3703078FFF7DBFF05047078FFF724
:1057A000D7FF00020543B078FFF7D2FF0543F0783A
:1057B000000405432368CA225A622368773A5A6272
:1057C0002000FFF73CFF071E33D12368284805401F
:1057D0001D602268936827490B40936021688B689D
:1057E000F2683069024313438B602268D3688021DA
:1057F0008B43D36023689B689B0626D52368FF22D2
:105800005A622123FE3AE254013B0022E2541AE09C
:1058100003689B685B0601D40023F37035782D0480
:10582000707800020543B0780543F0780004054322
:10583000C0E72368FF225A622123FB3AE254013B6E
:105840000022E25401273800F8BD2000FFF7DEFEF9
:105850000028D3D02368FF225A622123FB3AE25466
:10586000013B0022E2540127EDE70227EBE7C046A7
:105870007F7F7F00FFFFFBFF70B504000E00202339
:10588000C35C012B69D020230121C15401330131B4
:10589000C154002A06D17378D90603D510218B4351
:1058A0000A337370002A31D1F078FFF751FF0504F5
:1058B0007078FFF74DFF00020543B078FFF748FF0F
:1058C00005433078400305432368CA225A6223689F
:1058D000773A5A622000FFF7B2FE061E21D12368F4
:1058E0001F4805405D602268D36880218B43D360E8
:1058F00023689B689B0620D52368FF225A622123D8
:10590000FE3AE254013B0022E25414E0F5782D0403
:10591000707800020543B0780543307840030543B2
:10592000D2E72368FF225A622123FB3AE254013B6B
:105930000022E2540126300070BD2000FFF766FE11
:105940000028D9D02368FF225A622123FB3AE2546F
:10595000013B0022E2540126EDE70226EBE7C046B8
:105960003FFFFF00020993009B185A000F231840C5
:105970008018C0B270470000F8B50C0003689B6A3D
:105980004B6003681B695B045B0C8B6003681B68DE
:105990000E490B401E0C3F20304020701D0A7F270F
:1059A0003D4065701F40A77040213140E170002AE2
:1059B0000AD1FFF7D7FF20702800FFF7D3FF6070F0
:1059C0003800FFF7CFFFA0700020F8BD7F7F7F0079
:1059D00070B50C0003685B680E490B40180CE07052
:1059E000190A1F260E4066703F251D40A5705B0BEF
:1059F00007210B402370002A0AD1FFF7B3FFE070A4
:105A00003000FFF7AFFF60702800FFF7ABFFA0701A
:105A1000002070BD3FFFFF00F8B504000E00150028
:105A20002023C35C012B00D177E020230122C25444
:105A300001330132C2540368C8325A620368773AAC
:105A40005A6203689B685B0518D5FEF7E5FE070000
:105A50002368DB685B0711D5FEF7DEFEC01BFA2367
:105A60009B009842F4D92368FF225A622123FC3A12
:105A7000E254013B0022E25403204DE02268936887
:105A800027490B4093602168CA68FF231A40254BC1
:105A90001343CB60FEF7C0FE07002368DA685207A5
:105AA00011D4FEF7B9FEC01BFA239B009842F4D92B
:105AB0002368FF225A622123FC3AE254013B002270
:105AC000E254032028E05E612268936807218B433B
:105AD0009360226893681D439560134B1968802278
